:100000000C9464000C948C000C948C000C94620A88
:100010000C94620A0C94620A0C948C000C948C0070
:100020000C948C000C948C000C948C000C948C0020
:100030000C948C000C948C000C948C000C948C0010
:100040000C94E5070C948C000C94C7050C94F905EE
:100050000C948C000C948C000C948C000C948C00F0
:100060000C948C000C948C0000000008000201002D
:100070000003040700000000000000000102040863
:100080001020408001020408102001020408102002
:10009000040404040404040402020202020203032E
:1000A00003030303000000002300260029000000D2
:1000B0000000250028002B0000000000240027007D
:1000C0002A006A0129067B0111241FBECFEFD8E068
:1000D000DEBFCDBF11E0A0E0B1E0E0EFFAE102C089
:1000E00005900D92AC34B107D9F722E0ACE4B1E051
:1000F00001C01D92A337B207E1F710E0C3E6D0E0DC
:1001000004C02197FE010E94560DC136D107C9F7E0
:100110000E9457060C946B0D0C94000026E040E002
:1001200052EC61E070E089E891E00E94620540E0F5
:1001300056E960E070E084E591E00E94060261E02B
:10014000809104010E94D50860E0809102010E9424
:10015000D50884E090E090934D0180934C0110927B
:1001600001011092000108958F929F92AF92BF9269
:10017000CF92DF92EF92FF920F931F93CF93DF9373
:10018000809102010E948F08909353018093520145
:10019000BC01990F880B990B1F921F921F9225E0AB
:1001A0002F93A12CB12C6501EE24EA9413E0F12EDB
:1001B00000E010E020E030E0A9010E9440090E9428
:1001C00064036B017C0160934E0170934F01809337
:1001D00050019093510100914C0110914D01C0913B
:1001E0000001D0910101B8016C1B7D0B072E000CA2
:1001F000880B990B0E9464034B015C010F900F90D8
:100200000F900F909B01AC01C701B6010E94EC0357
:1002100087FD13C0B8016C0F7D1F072E000C880BE3
:10022000990B0E9464039B01AC01C701B6010E94B7
:100230002E03181614F040E009C0A5019401C7016F
:10024000B6010E94EC0318163CF446E460E884E52D
:1002500091E00E94010317C0B8016C0F7D1F072EAB
:10026000000C880B990B0E9464039B01AC01C70131
:10027000B6010E942E0387FF20C042E360E884E5B8
:1002800091E00E94170340914E0150914F016091FF
:1002900050017091510122E030E089E891E0DF9156
:1002A000CF911F910F91FF90EF90DF90CF90BF9073
:1002B000AF909F908F900C94E307DF91CF911F91A7
:1002C0000F91FF90EF90DF90CF90BF90AF909F90F5
:1002D0008F90089520E041E060E08AE691E00E947E
:1002E000350B20E137E240E050E06AE671E084E55A
:1002F00091E00C94ED0184E591E00E9405028AE60C
:1003000091E00C94DC0A80E090E00895DC015296C4
:100310008D919C915397009739F0DC01ED91FC9100
:100320000680F781E02D09940895FC01A289B38924
:10033000109741F0ED91FC9111970084F185E02D2B
:10034000CD0108C084899589DC01ED91FC91008480
:10035000F185E02D0994FC01A289B389109741F041
:10036000ED91FC9111970284F385E02DCD0108C039
:1003700084899589DC01ED91FC910284F385E02D5F
:100380000994FC01A289B389109741F0ED91FC9189
:1003900011970190F081E02DCD0108C084899589E5
:1003A000DC01ED91FC910190F081E02D0994FC01BC
:1003B000A289B389109741F0ED91FC9111970484C3
:1003C000F585E02DCD0108C084899589DC01ED918A
:1003D000FC910484F585E02D0994FC0113821282BE
:1003E00088EE93E0A0E0B0E084839583A683B78392
:1003F0008BE091E09183808326873787408B518BF8
:10040000758B648B138A128A08950895FC01828982
:100410009389009719F026E00C94620584899589E8
:100420000C94600B8F929F92AF92BF92CF92DF920B
:10043000EF92FF92CF93DF93EC016A017B018A89EF
:100440009B89892B01F10E942F084B015C018A894D
:100450009B89DC01ED91FC910084F185E02D0995EB
:10046000892B71F40E942F08DC01CB0188199909AE
:10047000AA09BB098C159D05AE05BF0540F33DC01B
:100480008A899B8928C02C893D898091710290912D
:1004900072022817390781F50E942F084B015C0171
:1004A0008C899D89DC01ED91FC910084F185E02D22
:1004B0000995892B71F40E942F08DC01CB01881962
:1004C0009909AA09BB098C159D05AE05BF0540F326
:1004D00014C08C899D89DC01ED91FC910284F38527
:1004E000E02DDF91CF91FF90EF90DF90CF90BF9004
:1004F000AF909F908F90099402C08FEF9FEFDF9194
:10050000CF91FF90EF90DF90CF90BF90AF909F90F2
:100510008F900895FC01848595859627958784871B
:1005200028E030E044855585CA01880F991F57FFA0
:1005300004C041E2842740E19427958784872150B5
:10054000310981F70895AF92BF92DF92EF92FF9247
:100550000F931F93CF93DF93CDB7DEB70C851D8527
:1005600083E0F82ED8011D961C921E921C97FE0166
:100570003F96E12CBE85EB16A9F05F0182E0A80E44
:10058000B11CD0806D2DC8010E948A02D801ED9166
:10059000FC910190F081E02D6D2DC8010995E39447
:1005A000F501E8CFF801E48465850190F081E02D44
:1005B0000190F081E02DC8010995D801ED91FC91E1
:1005C0000190F081E02D6E2DC8010995F801468556
:1005D000578560897189C8010E9412028F3F910579
:1005E00029F0FA94F110BECF80E001C081E0DF91E4
:1005F000CF911F910F91FF90EF90DF90BF90AF9040
:1006000008951F924F931F921F921F926F9323E0A2
:100610002F939F938F930E94A3022DB73EB7275F1E
:100620003F4F0FB6F8943EBF0FBE2DBF08951F92E7
:100630004F931F9221E02F931F926F9323E02F93EC
:100640009F938F930E94A3022DB73EB7275F3F4F22
:100650000FB6F8943EBF0FBE2DBF08950E949F03B2
:1006600008F481E008950E94CB0388F09F5798F02A
:10067000B92F9927B751B0F0E1F0660F771F881FA7
:10068000991F1AF0BA95C9F714C0B13091F00E94C1
:10069000E503B1E008950C94E503672F782F8827D0
:1006A000B85F39F0B93FCCF3869577956795B395E8
:1006B000D9F73EF490958095709561957F4F8F4F57
:1006C0009F4F0895E89409C097FB3EF4909580955C
:1006D000709561957F4F8F4F9F4F9923A9F0F92F08
:1006E00096E9BB279395F695879577956795B79586
:1006F000F111F8CFFAF4BB0F11F460FF1BC06F5F6C
:100700007F4F8F4F9F4F16C0882311F096E911C07D
:10071000772321F09EE8872F762F05C0662371F09E
:1007200096E8862F70E060E02AF09A95660F771FB2
:10073000881FDAF7880F9695879597F90895990F8E
:100740000008550FAA0BE0E8FEEF16161706E8079B
:10075000F907C0F012161306E407F50798F0621BBC
:10076000730B840B950B39F40A2661F0232B242B91
:10077000252B21F408950A2609F4A140A6958FEFB0
:10078000811D811D089557FD9058440F551F59F044
:100790005F3F71F04795880F97FB991F61F09F3F6E
:1007A00079F087950895121613061406551FF2CF97
:1007B0004695F1DF08C0161617061806991FF1CFE7
:1007C00086957105610508940895E894BB2766270E
:1007D0007727CB0197F908950E949F0308F48FEFC4
:1007E00008950E9404040C9475040E94670438F074
:1007F0000E946E0420F0952311F00C945E040C947A
:10080000640411240C94E6030E94C30370F3959FC3
:10081000C1F3950F50E0551F629FF001729FBB27F7
:10082000F00DB11D639FAA27F00DB11DAA1F649F93
:100830006627B00DA11D661F829F2227B00DA11D46
:10084000621F739FB00DA11D621F839FA00D611DCC
:10085000221F749F3327A00D611D231F849F600DED
:10086000211D822F762F6A2F11249F5750409AF016
:10087000F1F088234AF0EE0FFF1FBB1F661F771FA2
:10088000881F91505040A9F79E3F510580F00C946D
:100890005E040C94E6035F3FE4F3983ED4F3869540
:1008A00077956795B795F795E7959F5FC1F7FE2B0D
:1008B000880F911D9695879597F9089597F99F67E9
:1008C00080E870E060E008959FEF80EC08950024D8
:1008D0000A941616170618060906089500240A94A5
:1008E00012161306140605060895092E0394000C2B
:1008F00011F4882352F0BB0F40F4BF2B11F460FFBA
:1009000004C06F5F7F4F8F4F9F4F0895FC01918D03
:10091000228D892F90E0805C9F4F821B91098F73FD
:1009200099270895FC01918D828D981731F0828D61
:10093000E80FF11D858D90E008958FEF9FEF0895EA
:10094000FC01918D828D981761F0828DDF01A80FD7
:10095000B11D5D968C91928D9F5F9F73928F90E0F9
:1009600008958FEF9FEF0895FC01538D448D252F3F
:1009700030E0842F90E0821B930B541710F0CF9639
:100980000895019708958FE196E0892B49F080E062
:1009900090E0892B29F00E941F0681110C94000021
:1009A0000895FC01848DDF01A80FB11DA35ABF4F2C
:1009B0002C91848D90E001968F739927848FA6895E
:1009C000B7892C93A089B1898C91837080648C93B2
:1009D000938D848D981306C00288F389E02D808161
:1009E0008F7D80830895EF92FF920F931F93CF9393
:1009F000DF93EC0181E0888F9B8D8C8D981305C06F
:100A0000E889F989808185FD26C0F62E0B8D10E0DE
:100A10000F5F1F4F0F731127E02E8C8DE8120CC053
:100A20000FB607FCFACFE889F989808185FFF5CFF9
:100A3000CE010E94D104F1CF8B8DFE01E80FF11D94
:100A4000E35AFF4FF0829FB7F8940B8FEA89FB8936
:100A5000808180620AC09FB7F894EE89FF89608325
:100A6000E889F98980818370806480839FBF81E0F9
:100A700090E0DF91CF911F910F91FF90EF9008953B
:100A8000CF93DF93EC01888D8823C9F0EA89FB8935
:100A9000808185FD05C0A889B9898C9186FD0FC02C
:100AA0000FB607FCF5CF808185FFF2CFA889B98901
:100AB0008C9185FFEDCFCE010E94D104E7CFDF916D
:100AC000CF910895CF92DF92EF92FF921F93CF9331
:100AD000DF93EC016A017B01122FE889F98982E03A
:100AE00080834115514E61057105B1F060E079E0F8
:100AF0008DE390E0A70196010E94F60CDA01C9018E
:100B00000197A109B109B695A795979587959C017D
:100B1000211580E13807A8F0E889F989108260E89A
:100B200074E88EE190E0A70196010E94F60CDA01CC
:100B3000C9010197A109B109B695A7959795879520
:100B40009C01EC85FD853083EE85FF852083188E22
:100B5000EC89FD891083EA89FB898081806180832B
:100B6000EA89FB89808188608083EA89FB898081AA
:100B700080688083EA89FB8980818F7D8083DF9113
:100B8000CF911F91FF90EF90DF90CF9008951F922B
:100B90000F920FB60F9211242F938F939F93EF9381
:100BA000FF93E0919901F0919A018081E0919F017A
:100BB000F091A00182FD12C090818091A2018F5F0F
:100BC0008F732091A301821751F0E091A201F0E010
:100BD000E757FE4F958F8093A20101C08081FF915E
:100BE000EF919F918F912F910F900FBE0F901F90BB
:100BF00018951F920F920FB60F9211242F933F93C7
:100C00004F935F936F937F938F939F93AF93BF9314
:100C1000EF93FF9389E891E00E94D104FF91EF9157
:100C2000BF91AF919F918F917F916F915F914F9104
:100C30003F912F910F900FBE0F901F90189589E84C
:100C400091E00E94860421E0892B09F420E0822FA4
:100C50000895E9E8F1E01382128288EE93E0A0E0C3
:100C6000B0E084839583A683B7838DE191E091837F
:100C7000808385EC90E09587848784EC90E097876B
:100C8000868780EC90E0918B808B81EC90E0938B59
:100C9000828B82EC90E0958B848B86EC90E0978B36
:100CA000868B118E128E138E148E089508950E94D5
:100CB00054080E9456060E948E00C3ECD4E00E94A5
:100CC000B4002097E1F30E94C304F9CFCF92DF92E2
:100CD000EF92FF920F931F93CF93DF936C017A01F2
:100CE0008B01C0E0D0E0CE15DF0581F0D8016D9119
:100CF0008D01D601ED91FC910190F081E02DC601AE
:100D00000995892B11F02196EECF7E01C701DF9165
:100D1000CF911F910F91FF90EF90DF90CF900895AA
:100D20006115710579F0FB0101900020E9F7319719
:100D3000AF01461B570BDC01ED91FC910280F38162
:100D4000E02D099480E090E00895DC01ED91FC91A4
:100D50000190F081E02D09948F929F92AF92BF9203
:100D6000EF92FF920F931F93CF93DF93CDB7DEB730
:100D7000A1970FB6F894DEBF0FBECDBF7C01FA017C
:100D8000CB0119A2223008F42AE08E010F5D1F4F1B
:100D9000822E912CA12CB12CBF01A50194010E949F
:100DA000F60CF901CA01015011096A3010F4605DB6
:100DB00001C0695CD8016C93232B242B252B61F790
:100DC000B801C7010E949006A1960FB6F894DEBF45
:100DD0000FBECDBFDF91CF911F910F91FF90EF908C
:100DE000BF90AF909F908F9008952115310541F4E9
:100DF000DC01ED91FC910190F081E02D642F0994CC
:100E00000C94AC069A01AB0160E070E00C94F5061E
:100E10007F928F929F92AF92BF92CF92DF92EF928A
:100E2000FF920F931F93CF93DF938C016A017B0195
:100E3000722E9A01AB01C701B6010E94CD0C882326
:100E400019F06EE271E027C046015701E894B7F847
:100E50002FEF3FEF4FE75FE7C501B4010E94CD0CD4
:100E600081110DC02FEF3FEF4FE75FE7C501B401E0
:100E70000E942E0318161CF462E371E00CC02FEFE1
:100E80003FEF4FE75FE4C701B6010E94EC0318167D
:100E900094F466E371E0C801DF91CF911F910F9147
:100EA000FF90EF90DF90CF90BF90AF909F908F908A
:100EB0007F900C9490062FEF3FEF4FE75FECC70158
:100EC000B6010E942E0387FDE4CF20E030E0A901A7
:100ED000C701B6010E942E0387FF0AC06DE2C80158
:100EE0000E94A506EC01F7FAF094F7F8F09402C01E
:100EF000C0E0D0E0B12C60E070E080E09FE37B14C4
:100F000041F020E030E040E251E40E945B0CB394F9
:100F1000F6CFA70196010E94EF0B6B017C010E94A6
:100F200033034B015C012AE0AB01BC01C8010E9404
:100F3000AC06C80FD91F7720B9F1C501B4010E94D2
:100F400062039B01AC01C701B6010E94EE0B6B016D
:100F50007C016EE2C8010E94A506C80FD91F20E0DF
:100F600030E040E251E4C701B6010E94F1034B01B9
:100F70005C010E9433036B017C014AE050E0C80130
:100F80000E940207C80FD91FB60180E090E00E94BE
:100F900062039B01AC01C501B4010E94EE0B6B0121
:100FA0007C017A947110DBCFCE01DF91CF911F913C
:100FB0000F91FF90EF90DF90CF90BF90AF909F90F8
:100FC0008F907F9008950C9408071F920F920FB690
:100FD0000F9211242F933F938F939F93AF93BF93BF
:100FE0008091270290912802A0912902B0912A02B3
:100FF0003091260223E0230F2D3720F40196A11D06
:10100000B11D05C026E8230F0296A11DB11D209336
:1010100026028093270290932802A0932902B0937E
:101020002A0280912B0290912C02A0912D02B09166
:101030002E020196A11DB11D80932B0290932C02CC
:10104000A0932D02B0932E02BF91AF919F918F91EB
:101050003F912F910F900FBE0F901F9018953FB7A3
:10106000F89480912B0290912C02A0912D02B091C6
:101070002E0226B5A89B05C02F3F19F00196A11D91
:10108000B11D3FBFBA2FA92F982F8827820F911D1E
:10109000A11DB11DBC01CD0142E0660F771F881F65
:1010A000991F4A95D1F70895789484B5826084BDDC
:1010B00084B5816084BD85B5826085BD85B581605C
:1010C00085BDEEE6F0E0808181608083E1E8F0E0BC
:1010D0001082808182608083808181608083E0E8EB
:1010E000F0E0808181608083E1EBF0E080818460CA
:1010F0008083E0EBF0E0808181608083EAE7F0E0CC
:10110000808184608083808182608083808181602F
:1011100080838081806880831092C10008958E3022
:1011200008F08E502091060190E4299F900111242F
:101130008770822B80937C0080917A0080648093FA
:101140007A0080917A0086FDFCCF80917800209112
:10115000790090E0922B0895833081F028F481305B
:1011600099F08230A1F008958730A9F08830B9F065
:101170008430D1F4809180008F7D03C08091800005
:101180008F7780938000089584B58F7702C084B5EF
:101190008F7D84BD08958091B0008F7703C08091CA
:1011A000B0008F7D8093B0000895CF93DF9390E0DF
:1011B000FC01E458FF4F2491FC01E057FF4F84915C
:1011C000882361F190E0880F991FFC01E854FF4FDC
:1011D000C591D491FC01E255FF4FA591B4916111E5
:1011E00009C09FB7F8948881209582238883EC9169
:1011F0002E230BC0623061F49FB7F8948881322FA0
:10120000309583238883EC912E2B2C939FBF06C0AF
:101210008FB7F894E8812E2B28838FBFDF91CF9171
:1012200008951F93CF93DF93282F30E0F901E859F9
:10123000FF4F8491F901E458FF4FD491F901E05731
:10124000FF4FC491CC23C1F0162F81110E94AC082E
:10125000EC2FF0E0EE0FFF1FE255FF4FA591B49188
:101260009FB7F894111104C08C91D095D82302C077
:10127000EC91DE2BDC939FBFDF91CF911F910895FE
:101280004F925F926F927F92AF92BF92CF92DF9216
:10129000EF92FF920F931F93CF93DF93CDB7DEB7FB
:1012A00029013A019B01AC01241935094609570966
:1012B00089899A89AB89BC89BC01CD016A197B09EE
:1012C0008C099D090E94D20CA801970124193509A7
:1012D000460957090E94180DCA01B9016A0D7B1D04
:1012E0008C1D9D1DDF91CF911F910F91FF90EF906D
:1012F000DF90CF90BF90AF907F906F905F904F90B6
:101300000895209171023091720228173907B9F4BB
:1013100090912F0280913002981789F0E0912F026E
:10132000F0E0EF5CFD4F808120912F0230E02F5FD5
:101330003F4F2F73332720932F0290E008958FEFB4
:101340009FEF08951F93CF93DF93DC015C968D91FF
:101350009C915D97009739F421E030E013963C931F
:101360002E9312973BC05196ED91FC915297509657
:101370002C915097322F30951FB75E964C915E9707
:10138000742F727041FD6095F8944081772311F0BD
:10139000422B01C043234083EC012197F1F748E041
:1013A000508160FF02C0522B01C053235083EC01D7
:1013B0002197F1F76695415099F78081772319F0CD
:1013C0008323808302C0282B20831FBF5C968D91CE
:1013D0009C915D970197F1F781E090E0DF91CF91CB
:1013E0001F9108950895209171023091720228177B
:1013F000390771F490912F0280913002981741F0D3
:10140000E0912F02F0E0EF5CFD4F808190E00895C5
:101410008FEF9FEF0895209171023091720228178B
:10142000390771F48091300220912F0290E0805CA6
:101430009F4F821B910960E470E00E94E20C0895C6
:1014400080E090E00895E0917102F0917202E81757
:10145000F90769F4A389B4899C91858980958923CA
:101460008C93109272021092710281E0089580E0D4
:101470000895CF93DF93EC018A8D9B8D892BF1F03A
:101480008091710290917202C817D907B9F0009744
:1014900011F00E94230A8E8D8E7F8E8F1092300263
:1014A00010922F02D0937202C0937102EB89FC89D3
:1014B00090818D89892B808381E001C080E0DF915C
:1014C000CF9108951F920F920FB60F9211242F9370
:1014D0003F934F935F936F937F938F939F93AF93BC
:1014E000BF93EF93FF93E0917102F09172023097F6
:1014F00009F451C0968DA685B785858591FF04C0F6
:101500009C91892329F447C09C91892309F043C009
:10151000A389B4899C918589809589238C93868938
:1015200097890197F1F7608D718DA685B7855585EF
:1015300038E020E0CB010197F1F7822F90E09595FC
:101540008795282F4C91452309F02068315091F759
:10155000868D81FD20958091300290E001968F73F9
:10156000992730912F02381749F0A0913002B0E04E
:10157000AF5CBD4F2C938093300203C0868D816099
:10158000868F828D938D0197F1F7A389B4899C9101
:101590008589892B8C93FF91EF91BF91AF919F919A
:1015A0008F917F916F915F914F913F912F910F900C
:1015B0000FBE0F901F9018952EE331E0FC01318390
:1015C00020830C94230A1F93CF93DF93EC01162FF3
:1015D0006E8D6695617081E06827812F0E941109E8
:1015E00061E0812F0E94D508812F90E0FC01E45832
:1015F000FF4FE491E88BFC01E057FF4FE491F0E0EE
:10160000EE0FFF1FE255FF4F859194919A8B898BC6
:10161000DF91CF911F9108951F93CF93DF93EC013A
:10162000162F60E0812F0E94D5088E8D81FD04C0A9
:1016300061E0812F0E9411091C87812F90E0FC013D
:10164000E458FF4FE491ED87FC01E057FF4FE49130
:10165000F0E0EE0FFF1FEC55FF4F859194919F87AF
:101660008E87DF91CF911F9108951F93CF93DF93C2
:10167000EC01162F1B821A8288EE93E0A0E0B0E006
:101680008C839D83AE83BF838EE391E099838883AF
:101690001F8A1E8A198E188E1B8E1A8E1D8E1C8E06
:1016A0008E8D8E7F20FB81F98E8F642FCE010E945C
:1016B000E30A612FCE01DF91CF911F910C940C0BA7
:1016C000CF93DF93EC019A01AB011B8E1A8E198E1A
:1016D000188E1F8A1E8A60E079E08DE390E00E94F8
:1016E000180DF9012430310518F0C901039702C023
:1016F00081E090E09D8F8C8F6C85663108F069C029
:10170000C901969587958431910510F0439702C0E1
:1017100081E090E09F8B8E8B369718F0C90105977A
:1017200002C081E090E0998F888FC901880F991FCE
:10173000280F391F36952795369527952D30310579
:1017400018F02C50310902C021E030E03B8F2A8F85
:1017500090916800683050F021E06E3008F420E08D
:1017600081E001C0880F2A95EAF701C084E0892B47
:10177000809368009C85983038F09E3040F0963118
:1017800048F020E030E008C02DE630E005C02BE650
:1017900030E002C02CE630E03C8B2B8B983030F4EC
:1017A00081E001C0880F9A95EAF70EC0292F30E03A
:1017B0009E3018F42850310902C02E50310981E0C2
:1017C00001C0880F2A95EAF78D8B8C8D9D8D01972E
:1017D000F1F7CE01DF91CF910C94390A5058BB2715
:1017E000AA270E94060C0C9475040E94670438F026
:1017F0000E946E0420F039F49F3F19F426F40C94F3
:1018000064040EF4E095E7FB0C945E04E92F0E945B
:10181000C30358F3BA17620773078407950720F0CC
:1018200079F4A6F50C94E5030EF4E0950B2EBA2F8F
:10183000A02D0B01B90190010C01CA01A0011124D6
:10184000FF27591B99F0593F50F4503E68F11A1682
:10185000F040A22F232F342F4427585FF3CF469513
:1018600037952795A795F0405395C9F77EF41F1635
:10187000BA0B620B730B840BBAF09150A1F0FF0FFF
:10188000BB1F661F771F881FC2F70EC0BA0F621FEB
:10189000731F841F48F4879577956795B795F795DB
:1018A0009E3F08F0B0CF9395880F08F09927EE0F70
:1018B0009795879508950E946F0C0C9475040E946B
:1018C0006E0458F00E94670440F029F45F3F29F04D
:1018D0000C945E0451110C94E6030C9464040E9471
:1018E000C30368F39923B1F3552391F3951B550B6B
:1018F000BB27AA2762177307840738F09F5F5F4FE3
:10190000220F331F441FAA1FA9F335D00E2E3AF021
:10191000E0E832D091505040E695001CCAF72BD039
:10192000FE2F29D0660F771F881FBB1F261737078A
:101930004807AB07B0E809F0BB0B802DBF01FF27BC
:1019400093585F4F3AF09E3F510578F00C945E0437
:101950000C94E6035F3FE4F3983ED4F386957795C5
:101960006795B795F7959F5FC9F7880F911D969575
:10197000879597F90895E1E0660F771F881FBB1FD1
:10198000621773078407BA0720F0621B730B840B7E
:10199000BA0BEE1F88F7E09508950E949F03880B0D
:1019A000990B0895DB018F939F930E94370DBF9190
:1019B000AF91A29F800D911DA39F900DB29F900D9E
:1019C0001124089597FB072E16F4009407D077FD95
:1019D00009D00E94420D07FC05D03EF490958195F8
:1019E0009F4F0895709561957F4F0895A1E21A2E3B
:1019F000AA1BBB1BFD010DC0AA1FBB1FEE1FFF1FB3
:101A0000A217B307E407F50720F0A21BB30BE40B02
:101A1000F50B661F771F881F991F1A9469F7609549
:101A20007095809590959B01AC01BD01CF01089503
:101A3000052E97FB1EF400940E942F0D57FD07D032
:101A40000E94F60C07FC03D04EF40C942F0D509519
:101A50004095309521953F4F4F4F5F4F089590959A
:101A60008095709561957F4F8F4F9F4F08950E948D
:101A70005C0DA59F900DB49F900DA49F800D911DAE
:101A800011240895AA1BBB1B51E107C0AA1FBB1F4D
:101A9000A617B70710F0A61BB70B881F991F5A95FA
:101AA000A9F780959095BC01CD010895EE0FFF1F19
:101AB0000590F491E02D0994A29FB001B39FC0015D
:101AC000A39F700D811D1124911DB29F700D811D6A
:101AD0001124911D089510E0C3E6D0E004C0FE017A
:101AE0000E94560D2196C436D107C9F7F894FFCF4E
:101AF00001000E0009000100000000C1016606831C
:101B00000186019501AB01D70100000000F30466D6
:101B100006B40440058604A00492040D0A006E6118
:101B20006E00696E66006F76660000000000A20914
:0C1B300066068301F2090B0A8109F30923
:00000001FF
