:100000000C9488000C94B0000C94B0000C945C0F1D
:100010000C945C0F0C945C0F0C94B0000C94B0002A
:100020000C94B0000C94B0000C94B0000C94B00090
:100030000C94B0000C94B0000C94B0000C94B00080
:100040000C94970C0C94B0000C94610A0C94930AD5
:100050000C94B0000C94B0000C94B0000C94B00060
:100060000C94B0000C94B00086021F028A02220297
:10007000250228022C022F023202350238023B02EE
:100080003E024102440248024B024E028E025C02D2
:100090005F02840262028402660269026D028402C7
:1000A00084027002740277027B027E028402810263
:1000B0000000000800020100000304070000000027
:1000C0000000000001020408102040800102040822
:1000D0001020010204081020040404040404040491
:1000E00002020202020203030303030300000000F2
:1000F00023002600290000000000250028002B0016
:1001000000000000240027002A00F805C30A160694
:1001100011241FBECFEFD8E0DEBFCDBF13E0A0E0BB
:10012000B1E0E0EFF4E202C005900D92A638B1070D
:10013000D9F724E0A6E8B3E001C01D92AC3DB207B8
:10014000E1F710E0C7E8D0E004C02197FE010E946B
:100150003712C538D107C9F70E94F10A0C946B1207
:100160000C94000020918803222381F0213051F467
:100170002DB3209386033DB320918703209523233D
:100180002DBB04C02FB7F894209386038CBD9DBD72
:1001900008958EBD00000DB407FEFDCF8EB5089505
:1001A00090918803992339F080918603913011F45E
:1001B0008DBB08958FBF0895CF93DF93EC0180E549
:1001C00091E00E94B20060E08E810E940B0E80ECF4
:1001D0000E94C90061E08E810E940B0E0E94D00037
:1001E0006AE070E080E090E0DF91CF910C94120D16
:1001F0001F93CF93DF93EC01162F80E591E00E94CF
:10020000B20060E08E810E940B0E83E00E94C90064
:10021000812F0E94C90080E00E94C900182F61E070
:100220008E810E940B0E0E94D000812FDF91CF9112
:100230001F9108950F931F93CF93DF93EC01062F27
:10024000142F80E591E00E94B20060E08E810E9450
:100250000B0E82E00E94C900802F0E94C900812FEE
:100260000E94C90061E08E810E940B0EDF91CF9148
:100270001F910F910C94D000FF920F931F93CF9377
:10028000DF93EC01F62E042F122F80E591E00E94FF
:10029000B20060E08E810E940B0E85E00E94C900D2
:1002A0008F2D0E94C900802F0E94C900812F0E94BB
:1002B000C90061E08E810E940B0EDF91CF911F91EA
:1002C0000F91FF900C94D0001F93CF93DF93EC011C
:1002D00080E591E00E94B20060E08E810E940B0EEA
:1002E00080EA0E94C90080E00E94C900182F61E0E6
:1002F0008E810E940B0E0E94D000812FDF91CF9142
:100300001F9108956EE00E94F800807E0895BF92CC
:10031000CF92DF92EF92FF920F931F93CF93DF93D1
:10032000EC01B62E0E94E10C6B017C010B2D10E05C
:100330002B2D40EE6FE0CE010E943C016EE0CE011D
:100340000E94F800807E90E08017910779F00E946B
:10035000E10CDC01CB018C199D09AE09BF09893C78
:100360009105A105B10520F381E001C080E0DF9196
:10037000CF911F910F91FF90EF90DF90CF90BF90A2
:1003800008950F931F93CF93DF93EC01162F0E94D4
:100390008201803221F5103211F16BE2CE010E9410
:1003A000F800082F007486FD06C020E440E46BE2EC
:1003B000CE010E943C0120E440E46CE2CE010E94A8
:1003C0003C0160E6CE010E948701811116C0011137
:1003D00006C020E040E46BE2CE010E943C0120E038
:1003E00040E46CE2CE010E943C01612FCE01DF911E
:1003F000CF911F910F910C94870181E0DF91CF91F4
:100400001F910F910895603211F0FC0162870C94E6
:10041000C1010F931F93CF93DF93413021F04230FE
:1004200009F43FC071C0462F50E0FA013197E23124
:10043000F10508F069C0EC5CFF4F0C943712C7E877
:10044000DFEF6EC0C7E0DAEB67C0C5E8D1EF64C08C
:10045000C7E0DEEB49E065C0C7E8DFEF35C0C7E8BD
:10046000DAEF32C0C7E8DFEF36C0C7E0DEEB33C0FB
:10047000C7E0DDEA30C0C7E8DAEF2DC0C6E8D0EF4C
:100480002AC0C7E8DAEF2EC0C5E8D1EF41E449C081
:10049000C6E8D0EF2EC0C4E0D0EA2BC0C2E8D0ED51
:1004A00028C0462F50E0FA013197E231F10560F59E
:1004B000EA5BFF4F0C943712C7E0DFEB2DC0C7E0BB
:1004C000DFEB02C0C4E0D4EA47E02BC0C7E0DFEBBB
:1004D00002C0C6E0D4EB43E024C0C7E0DFEB02C0BB
:1004E000C6E0D4EB41E01DC0C5E0D1EBFBCFC6E0D8
:1004F000D4EB40E016C0C5E0D1EBFBCFC2E0D0E9C1
:10050000F8CFC0E0D0E8F5CF81E01AC0C7E8DFEF50
:100510004FE307C0C7E8DFEF4FE003C0C7E0DFEB02
:100520004FE18C016AE20E941A014D2F69E2C80175
:100530000E941A014C2F68E2C8010E941A0180E053
:10054000DF91CF911F910F9108950F931F93CF9338
:100550008C01C0E340E06C2FC8010E941A0160E1E9
:100560006C0F40E0C8010E941A0160E26C0F40E08D
:10057000C8010E941A01CF5FCE3361F740E060E608
:10058000C8010E941A0140E060E7C801CF911F91A5
:100590000F910C941A01FF920F931F93CF93DF9347
:1005A000EC01062FF42E0E94DC0060E8CE010E94D0
:1005B000C101182F882319F069E071E036C063E2A9
:1005C00071E082EF93E00E943F0B4F2D602FCE0130
:1005D0000E940902882319F061E471E026C063E5F6
:1005E00071E082EF93E00E943F0BCE010E94A502D2
:1005F00043E06BE2CE010E941A0124E044E660E68B
:10060000CE010E943C0120E040E660E7CE010E945E
:100610003C0160E0CE010E940302182F882319F0EC
:1006200068E671E002C063E871E082EF93E00E9447
:100630003F0B812FDF91CF911F910F91FF90089574
:100640002F923F924F925F926F927F928F929F92E2
:10065000AF92BF92CF92DF92EF92FF920F931F93D0
:10066000CF93DF9300D000D01F92CDB7DEB74C01FF
:10067000562E5A01190138014C2CDD8260E0FC0134
:1006800086810E940B0E852D0E94C9008E010F5F8E
:100690001F4F6E01F5E0CF0ED11C80E00E94C90013
:1006A000F80181938F01EC15FD05B9F72A81398195
:1006B000822F90E065E0959587956A95E1F7F8E0DF
:1006C0003F9F800D911D1124092E000CAA0BBB0B1E
:1006D000F50180839183A283B383F101108223FF0C
:1006E0003AC0F50180819181A281B38132E0880F07
:1006F000991FAA1FBB1F3A95D1F72370820F911D36
:10070000A11DB11D80839183A283B38380819181D8
:10071000A281B381BA2FA92F982F88272B81820F0E
:10072000911DA11DB11D80839183A283B38380811C
:100730009181A281B381BA2FA92F982F88272C816C
:10074000820F911DA11DB11D80839183A283B3836C
:1007500081E0F101808380E00E94C900982F9F70A2
:10076000F701908386FB882780F9F3018083C42CEE
:10077000DD8010E0F7018081181750F4183041F047
:1007800080E00E94C900F60181936F011F5FF2CFE4
:1007900061E0F40186810F900F900F900F900F9001
:1007A000DF91CF911F910F91FF90EF90DF90CF904D
:1007B000BF90AF909F908F907F906F905F904F9081
:1007C0003F902F900C940B0ECF93DF93EC01662398
:1007D00059F0862F6E8361E00E94CF0D61E08E811B
:1007E000DF91CF910C940B0EDF91CF910895FC0116
:1007F000118629E833E0308727830C94E4030F93B4
:100800001F93CF93DF93EC01162F042F0E949E04B9
:10081000402F612FCE010E94CB0291E0811101C0D7
:1008200090E0892FDF91CF911F910F9108956F92E2
:100830007F928F929F92AF92BF92CF92DF92EF9270
:10084000FF920F931F93CF93DF93EC015A0149015D
:10085000380160FF02C060E903C061FF15C064E9B0
:10086000CE010E942003F30180818D83F4018081F9
:100870008883F50180819181A281B38189839A83E4
:10088000AB83BC8380E003C0F701108284E0DF917A
:10089000CF911F910F91FF90EF90DF90CF90BF907D
:1008A000AF909F908F907F906F9008950E94640109
:1008B000382F3B7A83FD02C020E001C024E085FD93
:1008C00002C090E001C098E0832F881F8827881F0E
:1008D0008295807F3370232B922B892B0895CF92A2
:1008E000DF92EF92FF920F931F93CF93DF93EC0170
:1008F0007B016A010E9456048E010B5F1F4FAE01FF
:100900004F5F5F4F9E01682FCE010E941704DF9159
:10091000CF911F910F91FF90EF90DF90CF900895AE
:100920000E946401837011F484E0089583E00895C7
:10093000FC016181728183819481089561E08AE084
:100940000E940B0E61E08AE00E94CF0D8CB58061A1
:100950008CBD8CB580648CBD61E08DE00E94CF0DB4
:1009600061E08BE00C94CF0D40E056E960E070E070
:1009700084EB93E00E945A1040E056E960E070E09A
:100980008EE993E00E94A50661E0809106010E9435
:10099000CF0D60E0809104010E94CF0D1092030101
:1009A0001092020141E060E18AE893E00E94FF03B7
:1009B000882369F06EE173E082EF93E00E944C0BB4
:1009C00064E670E080E090E00E94120DEBCF62E3FD
:1009D00073E082EF93E00E944C0B10929703109209
:1009E000960308954F925F926F927F928F929F929B
:1009F000AF92BF92CF92DF92EF92FF920F931F932D
:100A0000CF93DF93CDB7DEB729970FB6F894DEBF4B
:100A10000FBECDBF60E0809106010E940B0E1986CB
:100A200084EB93E00E94330F8AE893E00E949004E5
:100A3000833009F05AC0AE014F5F5F4FBE01675F60
:100A40007F4F8AE893E00E946F048AE893E00E9457
:100A50009804809104010E94890D90939D038093D6
:100A60009C03BC01990F880B990B1F921F921F9238
:100A700025E0922E9F92A12CB12C6501EE24EA94E0
:100A800013E0F12E00E010E020E030E0A9010E9428
:100A90003A0E0E9403086093980370939903809321
:100AA0009A0390939B0369816093950370E080E0C3
:100AB00090E01F921F921F929F92EE24EA94FE2CC8
:100AC00000E010E020E030E0A9010E943A0E7093AF
:100AD00097036093960361E0809106010E940B0EDC
:100AE0000FB6F894DEBF0FBECDBF83ED93E00E943A
:100AF000330F80909603909097030091020110911C
:100B00000301B401601B710B072E000C880B990BBD
:100B10000E9403082B013C01C0909803D0909903D8
:100B2000E0909A03F0909B03A70196010E94CD07E5
:100B300018169CF0B401600F711F072E000C880B73
:100B4000990B0E9403089B01AC01C701B6010E94EA
:100B5000CD07181614F040E009C0A7019601C301A3
:100B6000B2010E94CD0787FF07C046E460E88EE926
:100B700093E00E94A00717C0B401600F711F072EF9
:100B8000000C880B990B0E9403089B01AC01C70164
:100B9000B6010E94CD0787FF14C042E360E88EE9EA
:100BA00093E00E94B6074091980350919903609199
:100BB0009A0370919B0322E030E082EF93E00E9461
:100BC000950C29960FB6F894DEBF0FBECDBFDF910E
:100BD000CF911F910F91FF90EF90DF90CF90BF903A
:100BE000AF909F908F907F906F905F904F900895FF
:100BF00020E041E060E083ED93E00E942F1020E0D0
:100C00004BE06AE084EB93E00E942F1020E137E292
:100C100040E050E063ED73E08EE993E00E948C06C3
:100C2000609100018AE893E00C94F7038EE993E069
:100C30000E94A40684EB93E00E94D60F83ED93E01C
:100C40000C94D60F80E090E00895DC0152968D91CF
:100C50009C915397009739F0DC01ED91FC9106804F
:100C6000F781E02D09940895FC01A289B3891097BA
:100C700041F0ED91FC9111970084F185E02DCD01BB
:100C800008C084899589DC01ED91FC910084F1858F
:100C9000E02D0994FC01A289B389109741F0ED91F0
:100CA000FC9111970284F385E02DCD0108C0848961
:100CB0009589DC01ED91FC910284F385E02D099486
:100CC000FC01A289B389109741F0ED91FC91119735
:100CD0000190F081E02DCD0108C084899589DC0167
:100CE000ED91FC910190F081E02D0994FC01A28925
:100CF000B389109741F0ED91FC9111970484F5852B
:100D0000E02DCD0108C084899589DC01ED91FC912D
:100D10000484F585E02D0994FC011382128288EE8B
:100D200093E0A0E0B0E084839583A683B78387E453
:100D300093E09183808326873787408B518B758B17
:100D4000648B138A128A08950895FC01828993891D
:100D5000009719F026E00C94FC09848995890C947D
:100D60005A108F929F92AF92BF92CF92DF92EF92E2
:100D7000FF92CF93DF93EC016A017B018A899B8903
:100D8000892B01F10E94ED0C4B015C018A899B8942
:100D9000DC01ED91FC910084F185E02D0995892B12
:100DA00071F40E94ED0CDC01CB0188199909AA09A4
:100DB000BB098C159D05AE05BF0540F33DC08A8972
:100DC0009B8928C02C893D898091DA049091DB04AD
:100DD0002817390781F50E94ED0C4B015C018C89C5
:100DE0009D89DC01ED91FC910084F185E02D099550
:100DF000892B71F40E94ED0CDC01CB018819990953
:100E0000AA09BB098C159D05AE05BF0540F314C0AA
:100E10008C899D89DC01ED91FC910284F385E02DA4
:100E2000DF91CF91FF90EF90DF90CF90BF90AF9088
:100E30009F908F90099402C08FEF9FEFDF91CF9129
:100E4000FF90EF90DF90CF90BF90AF909F908F90EA
:100E50000895FC018485958596279587848728E0E9
:100E600030E044855585CA01880F991F57FF04C09B
:100E700041E2842740E194279587848721503109F6
:100E800081F70895AF92BF92DF92EF92FF920F9396
:100E90001F93CF93DF93CDB7DEB70C851D8583E01D
:100EA000F82ED8011D961C921E921C97FE013F96AB
:100EB000E12CBE85EB16A9F05F0182E0A80EB11C03
:100EC000D0806D2DC8010E942907D801ED91FC91B9
:100ED0000190F081E02D6D2DC8010995E394F50195
:100EE000E8CFF801E48465850190F081E02D019060
:100EF000F081E02DC8010995D801ED91FC91019098
:100F0000F081E02D6E2DC8010995F80146855785C1
:100F100060897189C8010E94B1068F3F910529F04F
:100F2000FA94F110BECF80E001C081E0DF91CF9153
:100F30001F910F91FF90EF90DF90BF90AF900895B9
:100F40001F924F931F921F921F926F9323E02F9334
:100F50009F938F930E9442072DB73EB7275F3F4F65
:100F60000FB6F8943EBF0FBE2DBF08951F924F934A
:100F70001F9221E02F931F926F9323E02F939F9353
:100F80008F930E9442072DB73EB7275F3F4F0FB6A2
:100F9000F8943EBF0FBE2DBF08950E943E0808F48E
:100FA00081E008950E946A0888F09F5798F0B92F51
:100FB0009927B751B0F0E1F0660F771F881F991F8E
:100FC0001AF0BA95C9F714C0B13091F00E948408A4
:100FD000B1E008950C948408672F782F8827B85FB4
:100FE00039F0B93FCCF3869577956795B395D9F7E6
:100FF0003EF490958095709561957F4F8F4F9F4FF0
:101000000895E89409C097FB3EF4909580957095FB
:1010100061957F4F8F4F9F4F9923A9F0F92F96E944
:10102000BB279395F695879577956795B795F111B9
:10103000F8CFFAF4BB0F11F460FF1BC06F5F7F4F56
:101040008F4F9F4F16C0882311F096E911C0772368
:1010500021F09EE8872F762F05C0662371F096E871
:10106000862F70E060E02AF09A95660F771F881F40
:10107000DAF7880F9695879597F90895990F0008E4
:10108000550FAA0BE0E8FEEF16161706E807F9075A
:10109000C0F012161306E407F50798F0621B730BF5
:1010A000840B950B39F40A2661F0232B242B252B76
:1010B00021F408950A2609F4A140A6958FEF811D19
:1010C000811D089557FD9058440F551F59F05F3FFB
:1010D00071F04795880F97FB991F61F09F3F79F05A
:1010E00087950895121613061406551FF2CF4695DC
:1010F000F1DF08C0161617061806991FF1CF86955E
:101100007105610508940895E894BB276627772741
:10111000CB0197F908950E949E080C940F090E9434
:10112000010938F00E94080920F0952311F00C9471
:10113000F8080C94FE0811240C9485080E9462089B
:1011400070F3959FC1F3950F50E0551F629FF0011A
:10115000729FBB27F00DB11D639FAA27F00DB11D33
:10116000AA1F649F6627B00DA11D661F829F2227BC
:10117000B00DA11D621F739FB00DA11D621F839F43
:10118000A00D611D221F749F3327A00D611D231F19
:10119000849F600D211D822F762F6A2F11249F5767
:1011A00050409AF0F1F088234AF0EE0FFF1FBB1F6A
:1011B000661F771F881F91505040A9F79E3F510529
:1011C00080F00C94F8080C9485085F3FE4F3983E97
:1011D000D4F3869577956795B795F795E7959F5FD3
:1011E000C1F7FE2B880F911D9695879597F9089565
:1011F00097F99F6780E870E060E008959FEF80ECCA
:10120000089500240A94161617061806090608956C
:1012100000240A9412161306140605060895092ED2
:101220000394000C11F4882352F0BB0F40F4BF2B41
:1012300011F460FF04C06F5F7F4F8F4F9F4F089581
:10124000FC01918D228D892F90E0805C9F4F821B45
:1012500091098F7399270895FC01918D828D9817BC
:1012600031F0828DE80FF11D858D90E008958FEFAC
:101270009FEF0895FC01918D828D981761F0828D0A
:10128000DF01A80FB11D5D968C91928D9F5F9F73BA
:10129000928F90E008958FEF9FEF0895FC01538D9A
:1012A000448D252F30E0842F90E0821B930B541740
:1012B00010F0CF9608950197089589EB9AE0892B55
:1012C00049F080E090E0892B29F00E94B90A811151
:1012D0000C9400000895FC01848DDF01A80FB11D5E
:1012E000A35ABF4F2C91848D90E001968F7399275C
:1012F000848FA689B7892C93A089B1898C9183703A
:1013000080648C93938D848D981306C00288F38932
:10131000E02D80818F7D80830895EF92FF920F935F
:101320001F93CF93DF93EC0181E0888F9B8D8C8D91
:10133000981305C0E889F989808185FD26C0F62EBD
:101340000B8D10E00F5F1F4F0F731127E02E8C8D58
:10135000E8120CC00FB607FCFACFE889F989808142
:1013600085FFF5CFCE010E946B09F1CF8B8DFE0179
:10137000E80FF11DE35AFF4FF0829FB7F8940B8FEF
:10138000EA89FB89808180620AC09FB7F894EE8960
:10139000FF896083E889F989808183708064808314
:1013A0009FBF81E090E0DF91CF911F910F91FF905F
:1013B000EF900895CF93DF93EC01888D8823C9F0D7
:1013C000EA89FB89808185FD05C0A889B9898C914E
:1013D00086FD0FC00FB607FCF5CF808185FFF2CFE9
:1013E000A889B9898C9185FFEDCFCE010E946B0948
:1013F000E7CFDF91CF910895CF92DF92EF92FF92E6
:101400001F93CF93DF93EC016A017B01122FE889D0
:10141000F98982E080834115514E61057105B1F073
:1014200060E079E08DE390E0A70196010E94F6115B
:10143000DA01C9010197A109B109B695A795979558
:1014400087959C01211580E13807A8F0E889F98982
:10145000108260E874E88EE190E0A70196010E9496
:10146000F611DA01C9010197A109B109B695A7954D
:10147000979587959C01EC85FD853083EE85FF85EA
:101480002083188EEC89FD891083EA89FB8980818D
:1014900080618083EA89FB89808188608083EA8912
:1014A000FB89808180688083EA89FB8980818F7DC8
:1014B0008083DF91CF911F91FF90EF90DF90CF90CD
:1014C00008951F920F920FB60F9211242F938F93AE
:1014D0009F93EF93FF93E0910204F09103048081C6
:1014E000E0910804F091090482FD12C0908180917E
:1014F0000B048F5F8F7320910C04821751F0E091E1
:101500000B04F0E0EE50FC4F958F80930B0401C06C
:101510008081FF91EF919F918F912F910F900FBE3E
:101520000F901F9018951F920F920FB60F921124D3
:101530002F933F934F935F936F937F938F939F93DB
:10154000AF93BF93EF93FF9382EF93E00E946B09F9
:10155000FF91EF91BF91AF919F918F917F916F918B
:101560005F914F913F912F910F900FBE0F901F9061
:10157000189582EF93E00E94200921E0892B09F45D
:1015800020E0822F0895E2EFF3E01382128288EECA
:1015900093E0A0E0B0E084839583A683B78389E5D8
:1015A00093E09183808385EC90E09587848784EC39
:1015B00090E09787868780EC90E0918B808B81EC20
:1015C00090E0938B828B82EC90E0958B848B86EC01
:1015D00090E0978B868B118E128E138E148E089549
:1015E00008950E944E0D0E94F00A0E94B404CDE5B9
:1015F000D9E00E94F2042097E1F30E945D09F9CF3F
:10160000CF92DF92EF92FF920F931F93CF93DF93CE
:101610006C017A018B01C0E0D0E0CE15DF0581F0CE
:10162000D8016D918D01D601ED91FC910190F08171
:10163000E02DC6010995892B11F02196EECF7E0190
:10164000C701DF91CF911F910F91FF90EF90DF9035
:10165000CF9008956115710579F0FB01019000208C
:10166000E9F73197AF01461B570BDC01ED91FC9177
:101670000280F381E02D099480E090E008950C94BD
:101680002A0BDC01ED91FC910190F081E02D099491
:101690006EE371E00C942A0B0F931F93CF93DF93AB
:1016A000EC010E942A0B8C01CE010E94480B800F96
:1016B000911FDF91CF911F910F9108958F929F926B
:1016C000AF92BF92EF92FF920F931F93CF93DF934E
:1016D000CDB7DEB7A1970FB6F894DEBF0FBECDBF72
:1016E0007C01FA01CB0119A2223008F42AE08E0114
:1016F0000F5D1F4F822E912CA12CB12CBF01A50193
:1017000094010E94F611F901CA01015011096A30D1
:1017100010F4605D01C0695CD8016C93232B242B0D
:10172000252B61F7B801C7010E942A0BA1960FB6BD
:10173000F894DEBF0FBECDBFDF91CF911F910F9107
:10174000FF90EF90BF90AF909F908F9008952115DC
:10175000310541F4DC01ED91FC910190F081E02D27
:10176000642F09940C945E0B9A01AB0160E070E069
:101770000C94A70B7F928F929F92AF92BF92CF92C1
:10178000DF92EF92FF920F931F93CF93DF938C0121
:101790006A017B01722E9A01AB01C701B6010E945A
:1017A000CD11882319F067E673E027C04601570181
:1017B000E894B7F82FEF3FEF4FE75FE7C501B401BB
:1017C0000E94CD1181110DC02FEF3FEF4FE75FE772
:1017D000C501B4010E94CD0718161CF46BE673E036
:1017E0000CC02FEF3FEF4FE75FE4C701B6010E9447
:1017F000C811181694F46FE673E0C801DF91CF9119
:101800001F910F91FF90EF90DF90CF90BF90AF901E
:101810009F908F907F900C942A0B2FEF3FEF4FE714
:101820005FECC701B6010E94CD0787FDE4CF20E041
:1018300030E0A901C701B6010E94CD0787FF0AC0A9
:101840006DE2C8010E94410BEC01F7FAF094F7F841
:10185000F09402C0C0E0D0E0B12C60E070E080E025
:101860009FE37B1441F020E030E040E251E40E942D
:101870005611B394F6CFA70196010E94EA106B01AE
:101880007C010E94D2074B015C012AE0AB01BC0144
:10189000C8010E945E0BC80FD91F7720B9F1C5019E
:1018A000B4010E9401089B01AC01C701B6010E946E
:1018B000E9106B017C016EE2C8010E94410BC80F68
:1018C000D91F20E030E040E251E4C701B6010E9498
:1018D0008B084B015C010E94D2076B017C014AE03E
:1018E00050E0C8010E94B40BC80FD91FB60180E0B8
:1018F00090E00E9401089B01AC01C501B4010E9467
:10190000E9106B017C017A947110DBCFCE01DF917D
:10191000CF911F910F91FF90EF90DF90CF90BF90EC
:10192000AF909F908F907F9008950C94BA0B1F9268
:101930000F920FB60F9211242F933F938F939F9383
:10194000AF93BF938091900490919104A0919204E1
:10195000B091930430918F0423E0230F2D3720F4AE
:101960000196A11DB11D05C026E8230F0296A11DF9
:10197000B11D20938F048093900490939104A093C1
:101980009204B09393048091940490919504A09153
:101990009604B09197040196A11DB11D8093940403
:1019A00090939504A0939604B0939704BF91AF9140
:1019B0009F918F913F912F910F900FBE0F901F908D
:1019C00018952FB7F89460919004709191048091CC
:1019D0009204909193042FBF08953FB7F89480919B
:1019E000940490919504A0919604B091970426B523
:1019F000A89B05C02F3F19F00196A11DB11D3FBF47
:101A0000BA2FA92F982F8827820F911DA11DB11DD4
:101A1000BC01CD0142E0660F771F881F991F4A95D0
:101A2000D1F708958F929F92AF92BF92CF92DF929B
:101A3000EF92FF926B017C010E94ED0C4B015C0167
:101A4000C114D104E104F10401F10E94E8100E94E4
:101A5000ED0CDC01CB0188199909AA09BB09883E64
:101A60009340A105B10560F321E0C21AD108E10855
:101A7000F10888EE880E83E0981EA11CB11CC114E9
:101A8000D104E104F10419F7DBCFFF90EF90DF9070
:101A9000CF90BF90AF909F908F900895789484B529
:101AA000826084BD84B5816084BD85B5826085BD5A
:101AB00085B5816085BDEEE6F0E080818160808340
:101AC000E1E8F0E010828081826080838081816023
:101AD0008083E0E8F0E0808181608083E1EBF0E0EA
:101AE000808184608083E0EBF0E08081816080838E
:101AF000EAE7F0E080818460808380818260808377
:101B00008081816080838081806880831092C100A1
:101B100008958E3008F08E502091080190E4299F9E
:101B2000900111248770822B80937C0080917A0031
:101B3000806480937A0080917A0086FDFCCF80914A
:101B400078002091790090E0922B0895833081F005
:101B500028F4813099F08230A1F008958730A9F0FF
:101B60008830B9F08430D1F4809180008F7D03C03B
:101B7000809180008F7780938000089584B58F775F
:101B800002C084B58F7D84BD08958091B0008F77A9
:101B900003C08091B0008F7D8093B0000895CF93F3
:101BA000DF9390E0FC01EC53FF4F2491FC01E852DD
:101BB000FF4F8491882361F190E0880F991FFC0109
:101BC000E050FF4FC591D491FC01EA50FF4FA59121
:101BD000B491611109C09FB7F89488812095822340
:101BE0008883EC912E230BC0623061F49FB7F89488
:101BF0008881322F309583238883EC912E2B2C9370
:101C00009FBF06C08FB7F894E8812E2B28838FBF23
:101C1000DF91CF9108951F93CF93DF93282F30E06A
:101C2000F901E055FF4F8491F901EC53FF4FD49136
:101C3000F901E852FF4FC491CC23C1F0162F811156
:101C40000E94A60DEC2FF0E0EE0FFF1FEA50FF4FB1
:101C5000A591B4919FB7F894111104C08C91D095BF
:101C6000D82302C0EC91DE2BDC939FBFDF91CF9194
:101C70001F9108954F925F926F927F92AF92BF92A1
:101C8000CF92DF92EF92FF920F931F93CF93DF9348
:101C9000CDB7DEB729013A019B01AC012419350902
:101CA0004609570989899A89AB89BC89BC01CD014C
:101CB0006A197B098C099D090E94D211A80197011C
:101CC00024193509460957090E941812CA01B90199
:101CD0006A0D7B1D8C1D9D1DDF91CF911F910F9172
:101CE000FF90EF90DF90CF90BF90AF907F906F907C
:101CF0005F904F9008952091DA043091DB0428170B
:101D00003907B9F49091980480919904981789F053
:101D1000E0919804F0E0E656FB4F80812091980412
:101D200030E02F5F3F4F2F7333272093980490E0CC
:101D300008958FEF9FEF08951F93CF93DF93DC01FA
:101D40005C968D919C915D97009739F421E030E08D
:101D500013963C932E9312973BC05196ED91FC91B4
:101D6000529750962C915097322F30951FB75E9610
:101D70004C915E97742F727041FD6095F89440818C
:101D8000772311F0422B01C043234083EC012197BC
:101D9000F1F748E0508160FF02C0522B01C053238D
:101DA0005083EC012197F1F76695415099F78081B6
:101DB000772319F08323808302C0282B20831FBF41
:101DC0005C968D919C915D970197F1F781E090E091
:101DD000DF91CF911F91089508952091DA043091F9
:101DE000DB042817390771F49091980480919904C5
:101DF000981741F0E0919804F0E0E656FB4F80819F
:101E000090E008958FEF9FEF08952091DA043091CC
:101E1000DB042817390771F4809199042091980404
:101E200090E0805C9F4F821B910960E470E00E940B
:101E3000E211089580E090E00895E091DA04F091D5
:101E4000DB04E817F90769F4A389B4899C918589B3
:101E5000809589238C931092DB041092DA0481E040
:101E6000089580E00895CF93DF93EC018A8D9B8DD8
:101E7000892BF1F08091DA049091DB04C817D9071F
:101E8000B9F0009711F00E941D0F8E8D8E7F8E8FFE
:101E90001092990410929804D093DB04C093DA0452
:101EA000EB89FC8990818D89892B808381E001C039
:101EB00080E0DF91CF9108951F920F920FB60F929D
:101EC00011242F933F934F935F936F937F938F933F
:101ED0009F93AF93BF93EF93FF93E091DA04F09158
:101EE000DB04309709F451C0968DA685B7858585AA
:101EF00091FF04C09C91892329F447C09C918923B8
:101F000009F043C0A389B4899C9185898095892370
:101F10008C93868997890197F1F7608D718DA685DD
:101F2000B785558538E020E0CB010197F1F7822F86
:101F300090E095958795282F4C91452309F02068CE
:101F4000315091F7868D81FD20958091990490E024
:101F500001968F73992730919804381749F0A09112
:101F60009904B0E0A656BB4F2C938093990403C00C
:101F7000868D8160868F828D938D0197F1F7A3897D
:101F8000B4899C918589892B8C93FF91EF91BF91A6
:101F9000AF919F918F917F916F915F914F913F9101
:101FA0002F910F900FBE0F901F90189527E733E0E9
:101FB000FC01318320830C941D0F1F93CF93DF937B
:101FC000EC01162F6E8D6695617081E06827812F78
:101FD0000E940B0E61E0812F0E94CF0D812F90E0B7
:101FE000FC01EC53FF4FE491E88BFC01E852FF4FFA
:101FF000E491F0E0EE0FFF1FEA50FF4F85919491BE
:102000009A8B898BDF91CF911F9108951F93CF9366
:10201000DF93EC01162F60E0812F0E94CF0D8E8D93
:1020200081FD04C061E0812F0E940B0E1C87812F6F
:1020300090E0FC01EC53FF4FE491ED87FC01E85286
:10204000FF4FE491F0E0EE0FFF1FE451FF4F859149
:1020500094919F878E87DF91CF911F9108951F9351
:10206000CF93DF93EC01162F1B821A8288EE93E048
:10207000A0E0B0E08C839D83AE83BF8387E793E0CD
:10208000998388831F8A1E8A198E188E1B8E1A8E3A
:102090001D8E1C8E8E8D8E7F20FB81F98E8F642F7E
:1020A000CE010E94DD0F612FCE01DF91CF911F91F4
:1020B0000C940610CF93DF93EC019A01AB011B8EB9
:1020C0001A8E198E188E1F8A1E8A60E079E08DE3C1
:1020D00090E00E941812F9012430310518F0C9016E
:1020E000039702C081E090E09D8F8C8F6C856631F4
:1020F00008F069C0C901969587958431910510F063
:10210000439702C081E090E09F8B8E8B369718F04A
:10211000C901059702C081E090E0998F888FC901BD
:10212000880F991F280F391F3695279536952795C3
:102130002D30310518F02C50310902C021E030E07B
:102140003B8F2A8F90916800683050F021E06E300C
:1021500008F420E081E001C0880F2A95EAF701C069
:1021600084E0892B809368009C85983038F09E30FD
:1021700040F0963148F020E030E008C02DE630E035
:1021800005C02BE630E002C02CE630E03C8B2B8B08
:10219000983030F481E001C0880F9A95EAF70EC0BC
:1021A000292F30E09E3018F42850310902C02E50FB
:1021B000310981E001C0880F2A95EAF78D8B8C8D5B
:1021C0009D8D0197F1F7CE01DF91CF910C94330FE4
:1021D00008955058BB27AA270E9401110C940F099B
:1021E0000E94010938F00E94080920F039F49F3F4D
:1021F00019F426F40C94FE080EF4E095E7FB0C9419
:10220000F808E92F0E94620858F3BA1762077307AB
:102210008407950720F079F4A6F50C9484080EF451
:10222000E0950B2EBA2FA02D0B01B90190010C01E6
:10223000CA01A0011124FF27591B99F0593F50F4FE
:10224000503E68F11A16F040A22F232F342F442756
:10225000585FF3CF469537952795A795F04053954E
:10226000C9F77EF41F16BA0B620B730B840BBAF01E
:102270009150A1F0FF0FBB1F661F771F881FC2F789
:102280000EC0BA0F621F731F841F48F4879577959D
:102290006795B795F7959E3F08F0B0CF9395880F57
:1022A00008F09927EE0F9795879508950E946A1177
:1022B0000C940F090E94080958F00E94010940F08F
:1022C00029F45F3F29F00C94F80851110C9485080B
:1022D0000C94FE080E94620868F39923B1F3552319
:1022E00091F3951B550BBB27AA2762177307840729
:1022F00038F09F5F5F4F220F331F441FAA1FA9F3BF
:1023000035D00E2E3AF0E0E832D091505040E695AC
:10231000001CCAF72BD0FE2F29D0660F771F881F0D
:10232000BB1F261737074807AB07B0E809F0BB0B00
:10233000802DBF01FF2793585F4F3AF09E3F510514
:1023400078F00C94F8080C9485085F3FE4F3983E0D
:10235000D4F3869577956795B795F7959F5FC9F7FD
:10236000880F911D9695879597F90895E1E0660F7E
:10237000771F881FBB1F621773078407BA0720F0F7
:10238000621B730B840BBA0BEE1F88F7E095089560
:102390000E943E0808F48FEF08950E943E08880BC3
:1023A000990B0895DB018F939F930E943D12BF917B
:1023B000AF91A29F800D911DA39F900DB29F900D94
:1023C0001124089597FB072E16F4009407D077FD8B
:1023D00009D00E94481207FC05D03EF490958195E3
:1023E0009F4F0895709561957F4F0895A1E21A2E31
:1023F000AA1BBB1BFD010DC0AA1FBB1FEE1FFF1FA9
:10240000A217B307E407F50720F0A21BB30BE40BF8
:10241000F50B661F771F881F991F1A9469F760953F
:102420007095809590959B01AC01BD01CF010895F9
:10243000052E97FB1EF400940E942F1257FD07D023
:102440000E94F61107FC03D04EF40C942F12509505
:102450004095309521953F4F4F4F5F4F0895909590
:102460008095709561957F4F8F4F9F4F0895EE0F28
:10247000FF1F0590F491E02D09940E945C12A59F26
:10248000900DB49F900DA49F800D911D112408956F
:10249000AA1BBB1B51E107C0AA1FBB1FA617B7078A
:1024A00010F0A61BB70B881F991F5A95A9F78095A6
:1024B0009095BC01CD010895A29FB001B39FC001CA
:1024C000A39F700D811D1124911DB29F700D811D60
:1024D0001124911D089510E0C7E8D0E004C0FE016A
:1024E0000E9437122196C838D107C9F7F894FFCF58
:1024F0000A0001000E00090001456E746572207328
:10250000657474696E67206D6F6465206661696CBF
:102510000D0A00456E7465722073657474696E6788
:10252000206D6F64652073756363657373200D0A96
:102530000073657420726174652066616C6C212182
:102540000D0A00736574207261746520737563638E
:1025500065737321210D0A00456E746572204E6FFC
:10256000726D616C204D6F6465204661696C21213C
:102570000D0A00456E746572204E6F726D616C209D
:102580004D6F6465205375636365737321210D0A74
:1025900000426567696E20746F20736574204D6119
:1025A000736B21210D0A00456E746572207365748A
:1025B00074696E67206D6F64652066616C6C0D0ACE
:1025C00000456E746572206E6F726D616C206D6F68
:1025D00064652066616C6C0D0A00736574204D6142
:1025E000736B207375636365737321210D0A004259
:1025F0006567696E20746F207365742046696C741A
:10260000657221210D0A00456E746572206E6F722D
:102610006D616C206D6F64652066616C6C0D0A5392
:1026200065742066696C746572206661696C21212D
:102630000D0A007365742046696C746572207375A9
:10264000636365737321210D0A00496E76616C69BD
:10265000642070696E206D6F6465207265717565A8
:1026600073740D0A00456E746572696E6720436F5E
:102670006E66696775726174696F6E204D6F64650F
:10268000204661696C7572652E2E2E0D0A0060530E
:10269000657474696E67204944204D6F64652046F7
:1026A00061696C7572652E2E2E0D0A00496E766179
:1026B0006C69642070696E20666F72206D6F64654E
:1026C00020726571756573740D0A00496E76616CD0
:1026D00069642070696E20666F72206D6370446952
:1026E000676974616C57726974650D0A00496E768A
:1026F000616C69642070696E20666F72206D637012
:102700004469676974616C526561640D0A004341F4
:102710004E2042555320496E6974204661696C65AC
:10272000640043414E2042555320496E6974204F46
:102730004B2100000000006006000B220625063435
:10274000064A067606000000008D09000B4E09DAE5
:102750000920093A092C096E616E00696E66006FE6
:10276000766600000000009C0E000B2206EC0E05B1
:062770000F7B0EED0E00D0
:00000001FF
