:100000000C9488000C94B0000C94B0000C94440F35
:100010000C94440F0C94440F0C94B0000C94B0005A
:100020000C94B0000C94B0000C94B0000C94B00090
:100030000C94B0000C94B0000C94B0000C94B00080
:100040000C947F0C0C94B0000C94490A0C947B0A1D
:100050000C94B0000C94B0000C94B0000C94B00060
:100060000C94B0000C94B00086021F028A02220297
:10007000250228022C022F023202350238023B02EE
:100080003E024102440248024B024E028E025C02D2
:100090005F02840262028402660269026D028402C7
:1000A00084027002740277027B027E028402810263
:1000B0000000000800020100000304070000000027
:1000C0000000000001020408102040800102040822
:1000D0001020010204081020040404040404040491
:1000E00002020202020203030303030300000000F2
:1000F00023002600290000000000250028002B0016
:1001000000000000240027002A00EB05AB0A0206CD
:1001100011241FBECFEFD8E0DEBFCDBF13E0A0E0BB
:10012000B1E0E0ECF4E202C005900D92A638B10710
:10013000D9F724E0A6E8B3E001C01D92AC3BB207BA
:10014000E1F710E0C7E8D0E004C02197FE010E946B
:100150001F12C538D107C9F70E94D90A0C9453124F
:100160000C94000020918803222381F0213051F467
:100170002DB3209386033DB320918703209523233D
:100180002DBB04C02FB7F894209386038CBD9DBD72
:1001900008958EBD00000DB407FEFDCF8EB5089505
:1001A00090918803992339F080918603913011F45E
:1001B0008DBB08958FBF0895CF93DF93EC0180E549
:1001C00091E00E94B20060E08E810E94F30D80EC0D
:1001D0000E94C90061E08E810E94F30D0E94D00050
:1001E0006AE070E080E090E0DF91CF910C94FA0C2F
:1001F0001F93CF93DF93EC01162F80E591E00E94CF
:10020000B20060E08E810E94F30D83E00E94C9007D
:10021000812F0E94C90080E00E94C900182F61E070
:100220008E810E94F30D0E94D000812FDF91CF912B
:100230001F9108950F931F93CF93DF93EC01062F27
:10024000142F80E591E00E94B20060E08E810E9450
:10025000F30D82E00E94C900802F0E94C900812F07
:100260000E94C90061E08E810E94F30DDF91CF9161
:100270001F910F910C94D000FF920F931F93CF9377
:10028000DF93EC01F62E042F122F80E591E00E94FF
:10029000B20060E08E810E94F30D85E00E94C900EB
:1002A0008F2D0E94C900802F0E94C900812F0E94BB
:1002B000C90061E08E810E94F30DDF91CF911F9103
:1002C0000F91FF900C94D0001F93CF93DF93EC011C
:1002D00080E591E00E94B20060E08E810E94F30D03
:1002E00080EA0E94C90080E00E94C900182F61E0E6
:1002F0008E810E94F30D0E94D000812FDF91CF915B
:100300001F9108956EE00E94F800807E0895BF92CC
:10031000CF92DF92EF92FF920F931F93CF93DF93D1
:10032000EC01B62E0E94C90C6B017C010B2D10E074
:100330002B2D40EE6FE0CE010E943C016EE0CE011D
:100340000E94F800807E90E08017910779F00E946B
:10035000C90CDC01CB018C199D09AE09BF09893C90
:100360009105A105B10520F381E001C080E0DF9196
:10037000CF911F910F91FF90EF90DF90CF90BF90A2
:1003800008950F931F93CF93DF93EC01162F0E94D4
:100390008201803221F5103211F16BE2CE010E9410
:1003A000F800082F007486FD06C020E440E46BE2EC
:1003B000CE010E943C0120E440E46CE2CE010E94A8
:1003C0003C0160E6CE010E948701811116C0011137
:1003D00006C020E040E46BE2CE010E943C0120E038
:1003E00040E46CE2CE010E943C01612FCE01DF911E
:1003F000CF911F910F910C94870181E0DF91CF91F4
:100400001F910F910895603211F0FC0162870C94E6
:10041000C1010F931F93CF93DF93413021F04230FE
:1004200009F43FC071C0462F50E0FA013197E23124
:10043000F10508F069C0EC5CFF4F0C941F12C7E88F
:10044000DFEF6EC0C7E0DAEB67C0C5E8D1EF64C08C
:10045000C7E0DEEB49E065C0C7E8DFEF35C0C7E8BD
:10046000DAEF32C0C7E8DFEF36C0C7E0DEEB33C0FB
:10047000C7E0DDEA30C0C7E8DAEF2DC0C6E8D0EF4C
:100480002AC0C7E8DAEF2EC0C5E8D1EF41E449C081
:10049000C6E8D0EF2EC0C4E0D0EA2BC0C2E8D0ED51
:1004A00028C0462F50E0FA013197E231F10560F59E
:1004B000EA5BFF4F0C941F12C7E0DFEB2DC0C7E0D3
:1004C000DFEB02C0C4E0D4EA47E02BC0C7E0DFEBBB
:1004D00002C0C6E0D4EB43E024C0C7E0DFEB02C0BB
:1004E000C6E0D4EB41E01DC0C5E0D1EBFBCFC6E0D8
:1004F000D4EB40E016C0C5E0D1EBFBCFC2E0D0E9C1
:10050000F8CFC0E0D0E8F5CF81E01AC0C7E8DFEF50
:100510004FE307C0C7E8DFEF4FE003C0C7E0DFEB02
:100520004FE18C016AE20E941A014D2F69E2C80175
:100530000E941A014C2F68E2C8010E941A0180E053
:10054000DF91CF911F910F9108950F931F93CF9338
:100550008C01C0E340E06C2FC8010E941A0160E1E9
:100560006C0F40E0C8010E941A0160E26C0F40E08D
:10057000C8010E941A01CF5FCE3361F740E060E608
:10058000C8010E941A0140E060E7C801CF911F91A5
:100590000F910C941A01FF920F931F93CF93DF9347
:1005A000EC01062FF42E0E94DC0060E8CE010E94D0
:1005B000C101182F882319F069E071E036C063E2A9
:1005C00071E082ED93E00E94270B4F2D602FCE014A
:1005D0000E940902882319F061E471E026C063E5F6
:1005E00071E082ED93E00E94270BCE010E94A502EC
:1005F00043E06BE2CE010E941A0124E044E660E68B
:10060000CE010E943C0120E040E660E7CE010E945E
:100610003C0160E0CE010E940302182F882319F0EC
:1006200068E671E002C063E871E082ED93E00E9449
:10063000270B812FDF91CF911F910F91FF9008958C
:100640002F923F924F925F926F927F928F929F92E2
:10065000AF92BF92CF92DF92EF92FF920F931F93D0
:10066000CF93DF9300D000D01F92CDB7DEB74C01FF
:10067000562E5A01190138014C2CDD8260E0FC0134
:1006800086810E94F30D852D0E94C9008E010F5FA7
:100690001F4F6E01F5E0CF0ED11C80E00E94C90013
:1006A000F80181938F01EC15FD05B9F72A81398195
:1006B000822F90E065E0959587956A95E1F7F8E0DF
:1006C0003F9F800D911D1124092E000CAA0BBB0B1E
:1006D000F50180839183A283B383F101108223FF0C
:1006E0003AC0F50180819181A281B38132E0880F07
:1006F000991FAA1FBB1F3A95D1F72370820F911D36
:10070000A11DB11D80839183A283B38380819181D8
:10071000A281B381BA2FA92F982F88272B81820F0E
:10072000911DA11DB11D80839183A283B38380811C
:100730009181A281B381BA2FA92F982F88272C816C
:10074000820F911DA11DB11D80839183A283B3836C
:1007500081E0F101808380E00E94C900982F9F70A2
:10076000F701908386FB882780F9F3018083C42CEE
:10077000DD8010E0F7018081181750F4183041F047
:1007800080E00E94C900F60181936F011F5FF2CFE4
:1007900061E0F40186810F900F900F900F900F9001
:1007A000DF91CF911F910F91FF90EF90DF90CF904D
:1007B000BF90AF909F908F907F906F905F904F9081
:1007C0003F902F900C94F30DCF93DF93EC016623B1
:1007D00059F0862F6E8361E00E94B70D61E08E8133
:1007E000DF91CF910C94F30DDF91CF910895FC012F
:1007F000118629E833E0308727830C94E4030F93B4
:100800001F93CF93DF93EC01162F042F0E949E04B9
:10081000402F612FCE010E94CB0291E0811101C0D7
:1008200090E0892FDF91CF911F910F9108956F92E2
:100830007F928F929F92AF92BF92CF92DF92EF9270
:10084000FF920F931F93CF93DF93EC015A0149015D
:10085000380160FF02C060E903C061FF15C064E9B0
:10086000CE010E942003F30180818D83F4018081F9
:100870008883F50180819181A281B38189839A83E4
:10088000AB83BC8380E003C0F701108284E0DF917A
:10089000CF911F910F91FF90EF90DF90CF90BF907D
:1008A000AF909F908F907F906F9008950E94640109
:1008B000382F3B7A83FD02C020E001C024E085FD93
:1008C00002C090E001C098E0832F881F8827881F0E
:1008D0008295807F3370232B922B892B0895CF92A2
:1008E000DF92EF92FF920F931F93CF93DF93EC0170
:1008F0007B016A010E9456048E010B5F1F4FAE01FF
:100900004F5F5F4F9E01682FCE010E941704DF9159
:10091000CF911F910F91FF90EF90DF90CF900895AE
:100920000E946401837011F484E0089583E00895C7
:10093000FC016181728183819481089561E08AE084
:100940000E94F30D61E08AE00E94B70D8CB58061D2
:100950008CBD8CB580648CBD61E08DE00E94B70DCC
:1009600061E08BE00C94B70D26E040E052EC61E0D2
:1009700070E082ED93E00E94E40940E056E960E017
:1009800070E08DE993E00E948D0661E080910601A0
:100990000E94B70D60E0809104010E94B70D84E0D1
:1009A00090E0909396038093950310920301109228
:1009B000020141E060E18AE893E00E94FF0388239E
:1009C00069F06EE173E082ED93E00E94340B64E61F
:1009D00070E080E090E00E94FA0CEBCF62E373E0FD
:1009E00082ED93E00C94340B4F925F926F927F9262
:1009F000AF92BF92CF92DF92EF92FF920F931F932D
:100A0000CF93DF93CDB7DEB729970FB6F894DEBF4B
:100A10000FBECDBF60E0809106010E94F30D1986E4
:100A20008AE893E00E949004833009F0BFC0AE01D1
:100A30004F5F5F4FBE01675F7F4F8AE893E00E9480
:100A40006F048AE893E00E949804809104010E9458
:100A5000710D90939C0380939B03BC01990F880BAD
:100A6000990B1F921F921F9225E0722E7F92A12C4C
:100A7000B12C6501EE24EA9413E0F12E00E010E0C1
:100A800020E030E0A9010E94220E0E94EB07609353
:100A90009703709398038093990390939A036981C5
:100AA00070E080E090E01F921F921F927F92E12CF5
:100AB000F12C01E010E020E030E0A9010E94220EBC
:100AC000709396036093950361E0809106010E9404
:100AD000F30DA0909503B090960300910201109140
:100AE0000301B501601B710B072E000C880B990BDD
:100AF0000E94EB072B013C01C0909703D090980314
:100B0000E0909903F0909A030FB6F894DEBF0FBE01
:100B1000CDBFA70196010E94B50718169CF0B5013C
:100B2000600F711F072E000C880B990B0E94EB07BA
:100B30009B01AC01C701B6010E94B507181614F05D
:100B400040E009C0A7019601C301B2010E94B507A8
:100B500087FF07C046E460E88DE993E00E948807BC
:100B600017C0B501600F711F072E000C880B990B81
:100B70000E94EB079B01AC01C701B6010E94B507BB
:100B800087FF14C042E360E88DE993E00E949E076E
:100B900040919703509198036091990370919A0343
:100BA00022E030E082ED93E00E947D0C29960FB6A2
:100BB000F894DEBF0FBECDBFDF91CF911F910F9193
:100BC000FF90EF90DF90CF90BF90AF907F906F90AD
:100BD0005F904F90089520E041E060E083EB93E068
:100BE0000E94171020E137E240E050E063EB73E031
:100BF0008DE993E00E947406609100018AE893E019
:100C00000C94F7038DE993E00E948C0683EB93E04C
:100C10000C94BE0F80E090E00895DC0152968D9117
:100C20009C915397009739F0DC01ED91FC9106807F
:100C3000F781E02D09940895FC01A289B3891097EA
:100C400041F0ED91FC9111970084F185E02DCD01EB
:100C500008C084899589DC01ED91FC910084F185BF
:100C6000E02D0994FC01A289B389109741F0ED9120
:100C7000FC9111970284F385E02DCD0108C0848991
:100C80009589DC01ED91FC910284F385E02D0994B6
:100C9000FC01A289B389109741F0ED91FC91119765
:100CA0000190F081E02DCD0108C084899589DC0197
:100CB000ED91FC910190F081E02D0994FC01A28955
:100CC000B389109741F0ED91FC9111970484F5855B
:100CD000E02DCD0108C084899589DC01ED91FC915E
:100CE0000484F585E02D0994FC011382128288EEBC
:100CF00093E0A0E0B0E084839583A683B78388E483
:100D000093E09183808326873787408B518B758B47
:100D1000648B138A128A08950895FC01828993894D
:100D2000009719F026E00C94E409848995890C94C5
:100D300042108F929F92AF92BF92CF92DF92EF922A
:100D4000FF92CF93DF93EC016A017B018A899B8933
:100D5000892B01F10E94D50C4B015C018A899B898A
:100D6000DC01ED91FC910084F185E02D0995892B42
:100D700071F40E94D50CDC01CB0188199909AA09EC
:100D8000BB098C159D05AE05BF0540F33DC08A89A2
:100D90009B8928C02C893D898091BA049091BB041D
:100DA0002817390781F50E94D50C4B015C018C890D
:100DB0009D89DC01ED91FC910084F185E02D099580
:100DC000892B71F40E94D50CDC01CB01881999099B
:100DD000AA09BB098C159D05AE05BF0540F314C0DB
:100DE0008C899D89DC01ED91FC910284F385E02DD5
:100DF000DF91CF91FF90EF90DF90CF90BF90AF90B9
:100E00009F908F90099402C08FEF9FEFDF91CF9159
:100E1000FF90EF90DF90CF90BF90AF909F908F901A
:100E20000895FC018485958596279587848728E019
:100E300030E044855585CA01880F991F57FF04C0CB
:100E400041E2842740E19427958784872150310926
:100E500081F70895AF92BF92DF92EF92FF920F93C6
:100E60001F93CF93DF93CDB7DEB70C851D8583E04D
:100E7000F82ED8011D961C921E921C97FE013F96DB
:100E8000E12CBE85EB16A9F05F0182E0A80EB11C33
:100E9000D0806D2DC8010E941107D801ED91FC9101
:100EA0000190F081E02D6D2DC8010995E394F501C5
:100EB000E8CFF801E48465850190F081E02D019090
:100EC000F081E02DC8010995D801ED91FC910190C8
:100ED000F081E02D6E2DC8010995F80146855785F2
:100EE00060897189C8010E9499068F3F910529F098
:100EF000FA94F110BECF80E001C081E0DF91CF9184
:100F00001F910F91FF90EF90DF90BF90AF900895E9
:100F10001F924F931F921F921F926F9323E02F9364
:100F20009F938F930E942A072DB73EB7275F3F4FAD
:100F30000FB6F8943EBF0FBE2DBF08951F924F937A
:100F40001F9221E02F931F926F9323E02F939F9383
:100F50008F930E942A072DB73EB7275F3F4F0FB6EA
:100F6000F8943EBF0FBE2DBF08950E94260808F4D6
:100F700081E008950E94520888F09F5798F0B92F99
:100F80009927B751B0F0E1F0660F771F881F991FBE
:100F90001AF0BA95C9F714C0B13091F00E946C08EC
:100FA000B1E008950C946C08672F782F8827B85FFC
:100FB00039F0B93FCCF3869577956795B395D9F716
:100FC0003EF490958095709561957F4F8F4F9F4F20
:100FD0000895E89409C097FB3EF49095809570952C
:100FE00061957F4F8F4F9F4F9923A9F0F92F96E975
:100FF000BB279395F695879577956795B795F111EA
:10100000F8CFFAF4BB0F11F460FF1BC06F5F7F4F86
:101010008F4F9F4F16C0882311F096E911C0772398
:1010200021F09EE8872F762F05C0662371F096E8A1
:10103000862F70E060E02AF09A95660F771F881F70
:10104000DAF7880F9695879597F90895990F000814
:10105000550FAA0BE0E8FEEF16161706E807F9078A
:10106000C0F012161306E407F50798F0621B730B25
:10107000840B950B39F40A2661F0232B242B252BA6
:1010800021F408950A2609F4A140A6958FEF811D49
:10109000811D089557FD9058440F551F59F05F3F2B
:1010A00071F04795880F97FB991F61F09F3F79F08A
:1010B00087950895121613061406551FF2CF46950C
:1010C000F1DF08C0161617061806991FF1CF86958E
:1010D0007105610508940895E894BB276627772772
:1010E000CB0197F908950E9486080C94F7080E9496
:1010F000E90838F00E94F00820F0952311F00C94D4
:10110000E0080C94E60811240C946D080E944A082B
:1011100070F3959FC1F3950F50E0551F629FF0014A
:10112000729FBB27F00DB11D639FAA27F00DB11D63
:10113000AA1F649F6627B00DA11D661F829F2227EC
:10114000B00DA11D621F739FB00DA11D621F839F73
:10115000A00D611D221F749F3327A00D611D231F49
:10116000849F600D211D822F762F6A2F11249F5797
:1011700050409AF0F1F088234AF0EE0FFF1FBB1F9A
:10118000661F771F881F91505040A9F79E3F510559
:1011900080F00C94E0080C946D085F3FE4F3983EF7
:1011A000D4F3869577956795B795F795E7959F5F03
:1011B000C1F7FE2B880F911D9695879597F9089595
:1011C00097F99F6780E870E060E008959FEF80ECFA
:1011D000089500240A94161617061806090608959D
:1011E00000240A9412161306140605060895092E03
:1011F0000394000C11F4882352F0BB0F40F4BF2B72
:1012000011F460FF04C06F5F7F4F8F4F9F4F0895B1
:10121000FC01918D228D892F90E0805C9F4F821B75
:1012200091098F7399270895FC01918D828D9817EC
:1012300031F0828DE80FF11D858D90E008958FEFDC
:101240009FEF0895FC01918D828D981761F0828D3A
:10125000DF01A80FB11D5D968C91928D9F5F9F73EA
:10126000928F90E008958FEF9FEF0895FC01538DCA
:10127000448D252F30E0842F90E0821B930B541770
:1012800010F0CF9608950197089581EA9AE0892B8E
:1012900049F080E090E0892B29F00E94A10A811199
:1012A0000C9400000895FC01848DDF01A80FB11D8E
:1012B000A35ABF4F2C91848D90E001968F7399278C
:1012C000848FA689B7892C93A089B1898C9183706A
:1012D00080648C93938D848D981306C00288F38963
:1012E000E02D80818F7D80830895EF92FF920F9390
:1012F0001F93CF93DF93EC0181E0888F9B8D8C8DC2
:10130000981305C0E889F989808185FD26C0F62EED
:101310000B8D10E00F5F1F4F0F731127E02E8C8D88
:10132000E8120CC00FB607FCFACFE889F989808172
:1013300085FFF5CFCE010E945309F1CF8B8DFE01C1
:10134000E80FF11DE35AFF4FF0829FB7F8940B8F1F
:10135000EA89FB89808180620AC09FB7F894EE8990
:10136000FF896083E889F989808183708064808344
:101370009FBF81E090E0DF91CF911F910F91FF908F
:10138000EF900895CF93DF93EC01888D8823C9F007
:10139000EA89FB89808185FD05C0A889B9898C917E
:1013A00086FD0FC00FB607FCF5CF808185FFF2CF19
:1013B000A889B9898C9185FFEDCFCE010E94530990
:1013C000E7CFDF91CF910895CF92DF92EF92FF9216
:1013D0001F93CF93DF93EC016A017B01122FE88901
:1013E000F98982E080834115514E61057105B1F0A4
:1013F00060E079E08DE390E0A70196010E94DE11A4
:10140000DA01C9010197A109B109B695A795979588
:1014100087959C01211580E13807A8F0E889F989B2
:10142000108260E874E88EE190E0A70196010E94C6
:10143000DE11DA01C9010197A109B109B695A79595
:10144000979587959C01EC85FD853083EE85FF851A
:101450002083188EEC89FD891083EA89FB898081BD
:1014600080618083EA89FB89808188608083EA8942
:10147000FB89808180688083EA89FB8980818F7DF8
:101480008083DF91CF911F91FF90EF90DF90CF90FD
:1014900008951F920F920FB60F9211242F938F93DE
:1014A0009F93EF93FF93E091E203F091E303808138
:1014B000E091E803F091E90382FD12C090818091F0
:1014C000EB038F5F8F732091EC03821751F0E09153
:1014D000EB03F0E0EE52FC4F958F8093EB0301C0DD
:1014E0008081FF91EF919F918F912F910F900FBE6F
:1014F0000F901F9018951F920F920FB60F92112404
:101500002F933F934F935F936F937F938F939F930B
:10151000AF93BF93EF93FF9382ED93E00E94530943
:10152000FF91EF91BF91AF919F918F917F916F91BB
:101530005F914F913F912F910F900FBE0F901F9091
:10154000189582ED93E00E94080921E0892B09F4A7
:1015500020E0822F0895E2EDF3E01382128288EEFC
:1015600093E0A0E0B0E084839583A683B7838AE507
:1015700093E09183808385EC90E09587848784EC69
:1015800090E09787868780EC90E0918B808B81EC50
:1015900090E0938B828B82EC90E0958B848B86EC31
:1015A00090E0978B868B118E128E138E148E089579
:1015B00008950E94360D0E94D80A0E94B404C5E422
:1015C000D9E00E94F4042097E1F30E944509F9CF85
:1015D000CF92DF92EF92FF920F931F93CF93DF93FF
:1015E0006C017A018B01C0E0D0E0CE15DF0581F0FF
:1015F000D8016D918D01D601ED91FC910190F081A2
:10160000E02DC6010995892B11F02196EECF7E01C0
:10161000C701DF91CF911F910F91FF90EF90DF9065
:10162000CF9008956115710579F0FB0101900020BC
:10163000E9F73197AF01461B570BDC01ED91FC91A7
:101640000280F381E02D099480E090E008950C94ED
:10165000120BDC01ED91FC910190F081E02D0994D9
:101660006EE371E00C94120B0F931F93CF93DF93F3
:10167000EC010E94120B8C01CE010E94300B800FF6
:10168000911FDF91CF911F910F9108958F929F929B
:10169000AF92BF92EF92FF920F931F93CF93DF937E
:1016A000CDB7DEB7A1970FB6F894DEBF0FBECDBFA2
:1016B0007C01FA01CB0119A2223008F42AE08E0144
:1016C0000F5D1F4F822E912CA12CB12CBF01A501C3
:1016D00094010E94DE11F901CA01015011096A301A
:1016E00010F4605D01C0695CD8016C93232B242B3E
:1016F000252B61F7B801C7010E94120BA1960FB606
:10170000F894DEBF0FBECDBFDF91CF911F910F9137
:10171000FF90EF90BF90AF909F908F90089521150C
:10172000310541F4DC01ED91FC910190F081E02D57
:10173000642F09940C94460B9A01AB0160E070E0B1
:101740000C948F0B7F928F929F92AF92BF92CF9209
:10175000DF92EF92FF920F931F93CF93DF938C0151
:101760006A017B01722E9A01AB01C701B6010E948A
:10177000B511882319F068E673E027C046015701C8
:10178000E894B7F82FEF3FEF4FE75FE7C501B401EB
:101790000E94B51181110DC02FEF3FEF4FE75FE7BA
:1017A000C501B4010E94B50718161CF46CE673E07D
:1017B0000CC02FEF3FEF4FE75FE4C701B6010E9477
:1017C000B011181694F460E773E0C801DF91CF916F
:1017D0001F910F91FF90EF90DF90CF90BF90AF904F
:1017E0009F908F907F900C94120B2FEF3FEF4FE75D
:1017F0005FECC701B6010E94B50787FDE4CF20E08A
:1018000030E0A901C701B6010E94B50787FF0AC0F1
:101810006DE2C8010E94290BEC01F7FAF094F7F889
:10182000F09402C0C0E0D0E0B12C60E070E080E055
:101830009FE37B1441F020E030E040E251E40E945D
:101840003E11B394F6CFA70196010E94D2106B010E
:101850007C010E94BA074B015C012AE0AB01BC018C
:10186000C8010E94460BC80FD91F7720B9F1C501E6
:10187000B4010E94E9079B01AC01C701B6010E94B7
:10188000D1106B017C016EE2C8010E94290BC80FC8
:10189000D91F20E030E040E251E4C701B6010E94C8
:1018A00073084B015C010E94BA076B017C014AE09E
:1018B00050E0C8010E949C0BC80FD91FB60180E000
:1018C00090E00E94E9079B01AC01C501B4010E94B0
:1018D000D1106B017C017A947110DBCFCE01DF91C6
:1018E000CF911F910F91FF90EF90DF90CF90BF901D
:1018F000AF909F908F907F9008950C94A20B1F92B1
:101900000F920FB60F9211242F933F938F939F93B3
:10191000AF93BF938091700490917104A091720471
:10192000B091730430916F0423E0230F2D3720F41E
:101930000196A11DB11D05C026E8230F0296A11D29
:10194000B11D20936F048093700490937104A09351
:101950007204B09373048091740490917504A09103
:101960007604B09177040196A11DB11D8093740493
:1019700090937504A0937604B0937704BF91AF91D0
:101980009F918F913F912F910F900FBE0F901F90BD
:1019900018952FB7F894609170047091710480913C
:1019A0007204909173042FBF08953FB7F89480910B
:1019B000740490917504A0917604B091770426B5D3
:1019C000A89B05C02F3F19F00196A11DB11D3FBF77
:1019D000BA2FA92F982F8827820F911DA11DB11D05
:1019E000BC01CD0142E0660F771F881F991F4A9501
:1019F000D1F708958F929F92AF92BF92CF92DF92CC
:101A0000EF92FF926B017C010E94D50C4B015C01AF
:101A1000C114D104E104F10401F10E94D0100E942C
:101A2000D50CDC01CB0188199909AA09BB09883EAC
:101A30009340A105B10560F321E0C21AD108E10885
:101A4000F10888EE880E83E0981EA11CB11CC11419
:101A5000D104E104F10419F7DBCFFF90EF90DF90A0
:101A6000CF90BF90AF909F908F900895789484B559
:101A7000826084BD84B5816084BD85B5826085BD8A
:101A800085B5816085BDEEE6F0E080818160808370
:101A9000E1E8F0E010828081826080838081816053
:101AA0008083E0E8F0E0808181608083E1EBF0E01A
:101AB000808184608083E0EBF0E0808181608083BE
:101AC000EAE7F0E0808184608083808182608083A7
:101AD0008081816080838081806880831092C100D2
:101AE00008958E3008F08E502091080190E4299FCF
:101AF000900111248770822B80937C0080917A0062
:101B0000806480937A0080917A0086FDFCCF80917A
:101B100078002091790090E0922B0895833081F035
:101B200028F4813099F08230A1F008958730A9F02F
:101B30008830B9F08430D1F4809180008F7D03C06B
:101B4000809180008F7780938000089584B58F778F
:101B500002C084B58F7D84BD08958091B0008F77D9
:101B600003C08091B0008F7D8093B0000895CF9323
:101B7000DF9390E0FC01EC53FF4F2491FC01E8520D
:101B8000FF4F8491882361F190E0880F991FFC0139
:101B9000E050FF4FC591D491FC01EA50FF4FA59151
:101BA000B491611109C09FB7F89488812095822370
:101BB0008883EC912E230BC0623061F49FB7F894B8
:101BC0008881322F309583238883EC912E2B2C93A0
:101BD0009FBF06C08FB7F894E8812E2B28838FBF54
:101BE000DF91CF9108951F93CF93DF93282F30E09B
:101BF000F901E055FF4F8491F901EC53FF4FD49167
:101C0000F901E852FF4FC491CC23C1F0162F811186
:101C10000E948E0DEC2FF0E0EE0FFF1FEA50FF4FF9
:101C2000A591B4919FB7F894111104C08C91D095EF
:101C3000D82302C0EC91DE2BDC939FBFDF91CF91C4
:101C40001F9108954F925F926F927F92AF92BF92D1
:101C5000CF92DF92EF92FF920F931F93CF93DF9378
:101C6000CDB7DEB729013A019B01AC012419350932
:101C70004609570989899A89AB89BC89BC01CD017C
:101C80006A197B098C099D090E94BA11A801970164
:101C900024193509460957090E940012CA01B901E1
:101CA0006A0D7B1D8C1D9D1DDF91CF911F910F91A2
:101CB000FF90EF90DF90CF90BF90AF907F906F90AC
:101CC0005F904F9008952091BA043091BB0428177B
:101CD0003907B9F49091780480917904981789F0C4
:101CE000E0917804F0E0E658FB4F80812091780481
:101CF00030E02F5F3F4F2F7333272093780490E01D
:101D000008958FEF9FEF08951F93CF93DF93DC012A
:101D10005C968D919C915D97009739F421E030E0BD
:101D200013963C932E9312973BC05196ED91FC91E4
:101D3000529750962C915097322F30951FB75E9640
:101D40004C915E97742F727041FD6095F8944081BC
:101D5000772311F0422B01C043234083EC012197EC
:101D6000F1F748E0508160FF02C0522B01C05323BD
:101D70005083EC012197F1F76695415099F78081E6
:101D8000772319F08323808302C0282B20831FBF71
:101D90005C968D919C915D970197F1F781E090E0C1
:101DA000DF91CF911F91089508952091BA04309149
:101DB000BB042817390771F4909178048091790455
:101DC000981741F0E0917804F0E0E658FB4F8081ED
:101DD00090E008958FEF9FEF08952091BA0430911D
:101DE000BB042817390771F4809179042091780495
:101DF00090E0805C9F4F821B910960E470E00E943C
:101E0000CA11089580E090E00895E091BA04F0913D
:101E1000BB04E817F90769F4A389B4899C91858903
:101E2000809589238C931092BB041092BA0481E0B0
:101E3000089580E00895CF93DF93EC018A8D9B8D08
:101E4000892BF1F08091BA049091BB04C817D9078F
:101E5000B9F0009711F00E94050F8E8D8E7F8E8F46
:101E60001092790410927804D093BB04C093BA0402
:101E7000EB89FC8990818D89892B808381E001C069
:101E800080E0DF91CF9108951F920F920FB60F92CD
:101E900011242F933F934F935F936F937F938F936F
:101EA0009F93AF93BF93EF93FF93E091BA04F091A8
:101EB000BB04309709F451C0968DA685B7858585FA
:101EC00091FF04C09C91892329F447C09C918923E8
:101ED00009F043C0A389B4899C91858980958923A1
:101EE0008C93868997890197F1F7608D718DA6850E
:101EF000B785558538E020E0CB010197F1F7822FB7
:101F000090E095958795282F4C91452309F02068FE
:101F1000315091F7868D81FD20958091790490E074
:101F200001968F73992730917804381749F0A09162
:101F30007904B0E0A658BB4F2C938093790403C07A
:101F4000868D8160868F828D938D0197F1F7A389AD
:101F5000B4899C918589892B8C93FF91EF91BF91D6
:101F6000AF919F918F917F916F915F914F913F9131
:101F70002F910F900FBE0F901F90189528E733E018
:101F8000FC01318320830C94050F1F93CF93DF93C3
:101F9000EC01162F6E8D6695617081E06827812FA8
:101FA0000E94F30D61E0812F0E94B70D812F90E018
:101FB000FC01EC53FF4FE491E88BFC01E852FF4F2A
:101FC000E491F0E0EE0FFF1FEA50FF4F85919491EE
:101FD0009A8B898BDF91CF911F9108951F93CF9397
:101FE000DF93EC01162F60E0812F0E94B70D8E8DDC
:101FF00081FD04C061E0812F0E94F30D1C87812FB9
:1020000090E0FC01EC53FF4FE491ED87FC01E852B6
:10201000FF4FE491F0E0EE0FFF1FE451FF4F859179
:1020200094919F878E87DF91CF911F9108951F9381
:10203000CF93DF93EC01162F1B821A8288EE93E078
:10204000A0E0B0E08C839D83AE83BF8388E793E0FC
:10205000998388831F8A1E8A198E188E1B8E1A8E6A
:102060001D8E1C8E8E8D8E7F20FB81F98E8F642FAE
:10207000CE010E94C50F612FCE01DF91CF911F913C
:102080000C94EE0FCF93DF93EC019A01AB011B8E02
:102090001A8E198E188E1F8A1E8A60E079E08DE3F1
:1020A00090E00E940012F9012430310518F0C901B6
:1020B000039702C081E090E09D8F8C8F6C85663124
:1020C00008F069C0C901969587958431910510F093
:1020D000439702C081E090E09F8B8E8B369718F07B
:1020E000C901059702C081E090E0998F888FC901EE
:1020F000880F991F280F391F3695279536952795F4
:102100002D30310518F02C50310902C021E030E0AB
:102110003B8F2A8F90916800683050F021E06E303C
:1021200008F420E081E001C0880F2A95EAF701C099
:1021300084E0892B809368009C85983038F09E302D
:1021400040F0963148F020E030E008C02DE630E065
:1021500005C02BE630E002C02CE630E03C8B2B8B38
:10216000983030F481E001C0880F9A95EAF70EC0EC
:10217000292F30E09E3018F42850310902C02E502B
:10218000310981E001C0880F2A95EAF78D8B8C8D8B
:102190009D8D0197F1F7CE01DF91CF910C941B0F2C
:1021A00008955058BB27AA270E94E9100C94F708FD
:1021B0000E94E90838F00E94F00820F039F49F3FAF
:1021C00019F426F40C94E6080EF4E095E7FB0C9461
:1021D000E008E92F0E944A0858F3BA17620773070C
:1021E0008407950720F079F4A6F50C946C080EF49A
:1021F000E0950B2EBA2FA02D0B01B90190010C0117
:10220000CA01A0011124FF27591B99F0593F50F42E
:10221000503E68F11A16F040A22F232F342F442786
:10222000585FF3CF469537952795A795F04053957E
:10223000C9F77EF41F16BA0B620B730B840BBAF04E
:102240009150A1F0FF0FBB1F661F771F881FC2F7B9
:102250000EC0BA0F621F731F841F48F487957795CD
:102260006795B795F7959E3F08F0B0CF9395880F87
:1022700008F09927EE0F9795879508950E945211BF
:102280000C94F7080E94F00858F00E94E90840F00A
:1022900029F45F3F29F00C94E00851110C946D086B
:1022A0000C94E6080E944A0868F39923B1F3552379
:1022B00091F3951B550BBB27AA2762177307840759
:1022C00038F09F5F5F4F220F331F441FAA1FA9F3EF
:1022D00035D00E2E3AF0E0E832D091505040E695DD
:1022E000001CCAF72BD0FE2F29D0660F771F881F3E
:1022F000BB1F261737074807AB07B0E809F0BB0B31
:10230000802DBF01FF2793585F4F3AF09E3F510544
:1023100078F00C94E0080C946D085F3FE4F3983E6D
:10232000D4F3869577956795B795F7959F5FC9F72D
:10233000880F911D9695879597F90895E1E0660FAE
:10234000771F881FBB1F621773078407BA0720F027
:10235000621B730B840BBA0BEE1F88F7E095089590
:102360000E94260808F48FEF08950E942608880B23
:10237000990B0895DB018F939F930E942512BF91C3
:10238000AF91A29F800D911DA39F900DB29F900DC4
:102390001124089597FB072E16F4009407D077FDBB
:1023A00009D00E94301207FC05D03EF4909581952B
:1023B0009F4F0895709561957F4F0895A1E21A2E61
:1023C000AA1BBB1BFD010DC0AA1FBB1FEE1FFF1FD9
:1023D000A217B307E407F50720F0A21BB30BE40B29
:1023E000F50B661F771F881F991F1A9469F7609570
:1023F0007095809590959B01AC01BD01CF0108952A
:10240000052E97FB1EF400940E94171257FD07D06B
:102410000E94DE1107FC03D04EF40C941712509565
:102420004095309521953F4F4F4F5F4F08959095C0
:102430008095709561957F4F8F4F9F4F0895EE0F58
:10244000FF1F0590F491E02D09940E944412A59F6E
:10245000900DB49F900DA49F800D911D112408959F
:10246000AA1BBB1B51E107C0AA1FBB1FA617B707BA
:1024700010F0A61BB70B881F991F5A95A9F78095D6
:102480009095BC01CD010895A29FB001B39FC001FA
:10249000A39F700D811D1124911DB29F700D811D90
:1024A0001124911D089510E0C7E8D0E004C0FE019A
:1024B0000E941F122196C838D107C9F7F894FFCFA0
:1024C0000A0001000E00090001456E746572207358
:1024D000657474696E67206D6F6465206661696CF0
:1024E0000D0A00456E7465722073657474696E67B9
:1024F000206D6F64652073756363657373200D0AC7
:102500000073657420726174652066616C6C2121B2
:102510000D0A0073657420726174652073756363BE
:1025200065737321210D0A00456E746572204E6F2C
:10253000726D616C204D6F6465204661696C21216C
:102540000D0A00456E746572204E6F726D616C20CD
:102550004D6F6465205375636365737321210D0AA4
:1025600000426567696E20746F20736574204D6149
:10257000736B21210D0A00456E74657220736574BA
:1025800074696E67206D6F64652066616C6C0D0AFE
:1025900000456E746572206E6F726D616C206D6F98
:1025A00064652066616C6C0D0A00736574204D6172
:1025B000736B207375636365737321210D0A004289
:1025C0006567696E20746F207365742046696C744A
:1025D000657221210D0A00456E746572206E6F725E
:1025E0006D616C206D6F64652066616C6C0D0A53C3
:1025F00065742066696C746572206661696C21215E
:102600000D0A007365742046696C746572207375D9
:10261000636365737321210D0A00496E76616C69ED
:10262000642070696E206D6F6465207265717565D8
:1026300073740D0A00456E746572696E6720436F8E
:102640006E66696775726174696F6E204D6F64653F
:10265000204661696C7572652E2E2E0D0A0060533E
:10266000657474696E67204944204D6F6465204627
:1026700061696C7572652E2E2E0D0A00496E7661A9
:102680006C69642070696E20666F72206D6F64657E
:1026900020726571756573740D0A00496E76616C00
:1026A00069642070696E20666F72206D6370446982
:1026B000676974616C57726974650D0A00496E76BA
:1026C000616C69642070696E20666F72206D637042
:1026D0004469676974616C526561640D0A00434125
:1026E0004E2042555320496E6974204661696C65DD
:1026F000640043414E204255532020496E697420A6
:102700004F4B2100000000004806E80A0A060D06AB
:102710001C0632065E06000000007509E80A36094C
:10272000C2090809220914096E616E00696E66000B
:102730006F76660000000000840EE80A0A06D40ED8
:06274000ED0E630ED50E44
:00000001FF
