S013000041525F32305F436F6465732E7372656370
S11300000C9488000C94B0000C94B0000C9415115E
S11300100C9415110C9415110C94B0000C94B000B0
S11300200C94B0000C94B0000C94B0000C94E70550
S11300300C94B0000C94B0000C94B0000C94B0007C
S11300400C94500E0C94B0000C941A0C0C944C0CA0
S11300500C94B0000C94B0000C94B0000C94B0005C
S11300600C94B0000C94B000BC025502C0025802BB
S11300705B025E026202650268026B026E0271023A
S1130080740277027A027E0281028402C40292021E
S11300909502BA029802BA029C029F02A302BA0213
S11300A0BA02A602AA02AD02B102B402BA02B702AF
S11300B00000000800020100000304070000000023
S11300C0000000000102040810204080010204081E
S11300D0102001020408102004040404040404048D
S11300E002020202020203030303030300000000EE
S11300F023002600290000000000250028002B0012
S113010000000000240027002A005F097C0C70090D
S113011011241FBECFEFD8E0DEBFCDBF13E0A0E0B7
S1130120B1E0E0EAF7E202C005900D92A637B1070C
S1130130D9F724E0A6E7B3E001C01D92A73CB207BB
S1130140E1F710E0C7E8D0E004C02197FE010E9467
S11301508F13C538D107C9F70E94AA0C0C94C31396
S11301600C94000020919E03222381F0213051F44D
S11301702DB320939C033DB320919D03209523230D
S11301802DBB04C02FB7F89420939C038CBD9DBD58
S113019008958EBD00000DB407FEFDCF8EB5089501
S11301A090919E03992339F080919C03913011F42E
S11301B08DBB08958FBF0895CF93DF93EC0180E545
S11301C091E00E94B20060E08E810E94C40F80EC36
S11301D00E94C90061E08E810E94C40F0E94D00079
S11301E06AE070E080E090E0DF91CF910C94CB0E58
S11301F01F93CF93DF93EC01162F80E591E00E94CB
S1130200B20060E08E810E94C40F83E00E94C900A6
S1130210812F0E94C90080E00E94C900182F61E06C
S11302208E810E94C40F0E94D000812FDF91CF9154
S11302301F9108950F931F93CF93DF93EC01062F23
S1130240142F80E591E00E94B20060E08E810E944C
S1130250C40F82E00E94C900802F0E94C900812F30
S11302600E94C90061E08E810E94C40FDF91CF918A
S11302701F910F910C94D000DF92EF92FF920F9395
S11302801F93CF93DF938C01C62FD42EE52EF22E2D
S113029080E591E00E94B20060E0F80186810E944E
S11302A0C40F82E00E94C9008C2F0E94C900CD2D8A
S11302B0DE2DCE018F0D911D7C01EC16FD0621F083
S11302C089910E94C900F9CF61E0F80186810E94FA
S11302D0C40FDF91CF911F910F91FF90EF90DF90AA
S11302E00C94D000FF920F931F93CF93DF93EC01F4
S11302F0F62E042F122F80E591E00E94B20060E0F8
S11303008E810E94C40F85E00E94C9008F2D0E9437
S1130310C900802F0E94C900812F0E94C90061E09A
S11303208E810E94C40FDF91CF911F910F91FF9096
S11303300C94D0001F93CF93DF93EC0180E591E000
S11303400E94B20060E08E810E94C40F80EA0E9485
S1130350C90080E00E94C900182F61E08E810E94CC
S1130360C40F0E94D000812FDF91CF911F91089577
S11303706EE00E94F800807E0895BF92CF92DF92D3
S1130380EF92FF920F931F93CF93DF93EC01B62E5E
S11303900E949A0E6B017C010B2D10E02B2D40EE78
S11303A06FE0CE010E9472016EE0CE010E94F8005F
S11303B0807E90E08017910779F00E949A0EDC010C
S11303C0CB018C199D09AE09BF09893C9105A10592
S11303D0B10520F381E001C080E0DF91CF911F914E
S11303E00F91FF90EF90DF90CF90BF9008950F93FF
S11303F01F93CF93DF93EC01162F0E94B801803234
S113040021F5103211F16BE2CE010E94F800082FA1
S1130410007486FD06C020E440E46BE2CE010E9435
S1130420720120E440E46CE2CE010E94720160E6B5
S1130430CE010E94BD01811116C0011106C020E049
S113044040E46BE2CE010E94720120E040E46CE2E1
S1130450CE010E947201612FCE01DF91CF911F91D5
S11304600F910C94BD0181E0DF91CF911F910F9109
S11304700895603211F0FC0162870C94F7010F9328
S11304801F93CF93DF93413021F0423009F43FC0F2
S113049071C0462F50E0FA013197E231F10508F0BE
S11304A069C0EC5CFF4F0C948F13C7E8DFEF6EC09C
S11304B0C7E0DAEB67C0C5E8D1EF64C0C7E0DEEBA4
S11304C049E065C0C7E8DFEF35C0C7E8DAEF32C0FE
S11304D0C7E8DFEF36C0C7E0DEEB33C0C7E0DDEAD4
S11304E030C0C7E8DAEF2DC0C6E8D0EF2AC0C7E8AD
S11304F0DAEF2EC0C5E8D1EF41E449C0C6E8D0EF39
S11305002EC0C4E0D0EA2BC0C2E8D0ED28C0462FEC
S113051050E0FA013197E231F10560F5EA5BFF4FF3
S11305200C948F13C7E0DFEB2DC0C7E0DFEB02C0F4
S1130530C4E0D4EA47E02BC0C7E0DFEB02C0C6E06A
S1130540D4EB43E024C0C7E0DFEB02C0C6E0D4EB49
S113055041E01DC0C5E0D1EBFBCFC6E0D4EB40E0E9
S113056016C0C5E0D1EBFBCFC2E0D0E9F8CFC0E0C4
S1130570D0E8F5CF81E01AC0C7E8DFEF4FE307C04A
S1130580C7E8DFEF4FE003C0C7E0DFEB4FE18C01CA
S11305906AE20E941A014D2F69E2C8010E941A0101
S11305A04C2F68E2C8010E941A0180E0DF91CF91CC
S11305B01F910F9108950F931F93CF938C01C0E364
S11305C040E06C2FC8010E941A0160E16C0F40E00A
S11305D0C8010E941A0160E26C0F40E0C8010E9449
S11305E01A01CF5FCE3361F740E060E6C8010E9494
S11305F01A0140E060E7C801CF911F910F910C945C
S11306001A01FF920F931F93CF93DF93EC01062FF0
S1130610F42E0E94DC0060E8CE010E94F701182F3E
S1130620882319F06BE071E036C065E271E08DED6E
S113063093E00E94F80C4F2D602FCE010E943F02E0
S1130640882319F063E471E026C065E571E08DED5F
S113065093E00E94F80CCE010E94DB0243E06BE2BF
S1130660CE010E941A0124E044E660E6CE010E9415
S1130670720120E040E660E7CE010E94720160E072
S1130680CE010E943902182F882319F06AE671E01E
S113069002C065E871E08DED93E00E94F80C812FB3
S11306A0DF91CF911F910F91FF900895F90181304F
S11306B0B1F443835283AB0166277727942F9C714F
S11306C0842F837028E0929F800D11248860818399
S11306D065E0569547956A95E1F740830895CA0108
S11306E023E0969587952A95E1F780834295440FF8
S11306F0407E4183138212820895DF92EF92FF922B
S11307000F931F93CF93DF9300D000D0CDB7DEB704
S11307107C01D62E842FB901A8019E012F5F3F4F83
S11307200E94560324E0AE014F5F5F4F6D2DC70159
S11307300E943C010F900F900F900F90DF91CF918A
S11307401F910F91FF90EF90DF9008952F923F92A9
S11307504F925F926F927F928F929F92AF92BF92CD
S1130760CF92DF92EF92FF920F931F93CF93DF9379
S113077000D000D01F92CDB7DEB74C01562E5A01DF
S1130780190138014C2CDD8260E0FC0186810E9455
S1130790C40F852D0E94C9008E010F5F1F4F6E018B
S11307A0F5E0CF0ED11C80E00E94C900F8018193CE
S11307B08F01EC15FD05B9F72A813981822F90E06C
S11307C065E0959587956A95E1F7F8E03F9F800D80
S11307D0911D1124092E000CAA0BBB0BF50180837B
S11307E09183A283B383F101108223FF3AC0F50100
S11307F080819181A281B38132E0880F991FAA1F61
S1130800BB1F3A95D1F72370820F911DA11DB11D15
S113081080839183A283B38380819181A281B381F8
S1130820BA2FA92F982F88272B81820F911DA11DE4
S1130830B11D80839183A283B38380819181A2813E
S1130840B381BA2FA92F982F88272C81820F911D4D
S1130850A11DB11D80839183A283B38381E0F10143
S1130860808380E00E94C900982F9F70F7019083D5
S113087086FB882780F9F3018083C42CDD8010E097
S1130880F7018081181750F4183041F080E00E947D
S1130890C900F60181936F011F5FF2CF61E0F4019B
S11308A086810F900F900F900F900F90DF91CF9152
S11308B01F910F91FF90EF90DF90CF90BF90AF907A
S11308C09F908F907F906F905F904F903F902F906C
S11308D00C94C40FCF93DF93EC01662359F0862F59
S11308E06E8361E00E94880F61E08E81DF91CF9179
S11308F00C94C40FDF91CF910895FC0111862FE968
S113090033E0308727830C946A040F931F93CF93AB
S1130910DF93EC01162F042F0E948007402F612FD4
S1130920CE010E94010391E0811101C090E0892F62
S1130930DF91CF911F910F9108958F929F92AF9263
S1130940BF92DF92EF92FF920F931F93CF93DF93A7
S11309507C01D62ED42F4801590163EA71E08DED54
S113096093E00E94F80C60E8C7010E94F701C82FC9
S1130970882319F069EB71E01BC0D11005C0950103
S113098084014D2F60E207C081E0D81207C09501B1
S113099084014D2F64E2C7010E947D03F701628543
S11309A0C7010E94F701C82F882341F063ED71E06D
S11309B08DED93E00E94F80C8C2F07C06CEE71E073
S11309C08DED93E00E94F80C80E0DF91CF911F91B0
S11309D00F91FF90EF90DF90BF90AF909F908F901A
S11309E008958F929F92AF92BF92DF92EF92FF92FF
S11309F00F931F93CF93DF937C01D62FD42E4801FE
S1130A00590161E072E08DED93E00E94F80C60E81A
S1130A10C7010E94F701C82F882319F069EB71E020
S1130A2036C0D230C9F048F4DD2389F0D13029F53D
S1130A30950184014D2D64E01DC0D430B9F088F0D7
S1130A40D530D9F4950184014D2D68E113C0950189
S1130A5084014D2D60E00EC0950184014D2D68E0A8
S1130A6009C0950184014D2D60E104C09501840104
S1130A704D2D64E1C7010E947D03F7016285C70122
S1130A800E94F701C82F882341F069E172E08DEDDF
S1130A9093E00E94F80C8C2F07C065E472E08DEDA2
S1130AA093E00E94F80C80E0DF91CF911F910F91A9
S1130AB0FF90EF90DF90BF90AF909F908F9008953C
S1130AC06F927F928F929F92AF92BF92CF92DF925A
S1130AD0EF92FF920F931F93CF93DF93EC015A0190
S1130AE04901380160FF02C060E903C061FF15C01D
S1130AF064E9CE010E94A603F30180818D83F40191
S1130B0080818883F50180819181A281B381898369
S1130B109A83AB83BC8380E003C0F701108284E036
S1130B20DF91CF911F910F91FF90EF90DF90CF90C5
S1130B30BF90AF909F908F907F906F9008950E9488
S1130B409A01382F3B7A83FD02C020E001C024E0E3
S1130B5085FD02C090E001C098E0832F881F88279C
S1130B60881F8295807F3370232B922B892B0895C5
S1130B70CF92DF92EF92FF920F931F93CF93DF9365
S1130B80EC017B016A010E949F058E010B5F1F4FE0
S1130B90AE014F5F5F4F9E01682FCE010E9460053A
S1130BA0DF91CF911F910F91FF90EF90DF90CF9045
S1130BB008950E949A01837011F484E0089583E0FB
S1130BC00895FC01618172818381948108951F924B
S1130BD00F920FB60F9211242F933F934F935F936D
S1130BE06F937F938F939F93AF93BF93EF93FF93F1
S1130BF08091770387FF05C01092850010928400CE
S1130C001BC020917703022E000C330B80917603D6
S1130C1090E02817390784F480917703082E000C9C
S1130C20990BFC01EE0FFF1F8E0F9F1FFC01E8586C
S1130C30FC4F808186FD15C0809177038F5F809380
S1130C40770320917703022E000C330B80917603F7
S1130C5090E028173907C4F4809177038C3064F14D
S1130C6013C080917703082E000C990BFC01EE0F42
S1130C70FF1F8E0F9F1FFC01E858FC4F808160E02E
S1130C808F730E94C40FD8CF809184009091850007
S1130C90049680349C4918F480E49CE905C0809152
S1130CA08400909185000496909389008093880035
S1130CB08FEF809377033BC02091840030918500AF
S1130CC080917703082E000C990BFC01EE0FFF1F97
S1130CD08E0F9F1FFC01E858FC4F81819281820F87
S1130CE0931F909389008093880080917703082E46
S1130CF0000C990BFC01EE0FFF1F8E0F9F1FFC01D0
S1130D00E858FC4F808186FF12C080917703082E3B
S1130D10000C990BFC01EE0FFF1F8E0F9F1FFC01AF
S1130D20E858FC4F808161E08F730E94C40FFF91EB
S1130D30EF91BF91AF919F918F917F916F915F914F
S1130D404F913F912F910F900FBE0F901F901895C8
S1130D50FC01909176039C30A0F481E0890F80938C
S1130D6076039083892F90E0FC01EE0FFF1F8E0F16
S1130D709F1FFC01E858FC4F88EB9BE09283818322
S1130D8008958FEF80830895DF92EF92FF920F937F
S1130D901F93CF93DF93EC01D62E7A0189018881CA
S1130DA08C3008F068C061E08D2D0E94880F888126
S1130DB0E82FF0E09F01220F331FE20FF31FE858E2
S1130DC0FC4F9D2D9F732081207CD22ED92AD08266
S1130DD020E232E02E193F0937FF02C02D5F3F4F5A
S1130DE03595279535952795298320E639E0201BED
S1130DF0310B37FF02C02D5F3F4F35952795359551
S1130E0027952A832CE0622F0E942E13289FB0017D
S1130E10112440E050E09B01240F351FF901EE0F2F
S1130E20FF1F2E0F3F1FF901E858FC4F908196FDDC
S1130E3016C04F5F5F4F4C30510569F781110FC0E9
S1130E401092800082E080938100109285001092BD
S1130E508400B19A80916F00826080936F00E88172
S1130E60F0E0CF01880F991FE80FF91FE858FC4FF5
S1130E708081806480838881DF91CF911F910F915D
S1130E80FF90EF90DF90089520E639E040E252E0D1
S1130E900C94C406FC0190819C3088F5818128E87B
S1130EA030E0281B310987FD3395220F331F220FB1
S1130EB0331F6217730784F0828148E552E0481BB0
S1130EC0510987FD5395440F551F440F551F9B012E
S1130ED0461757070CF49A0122503109220F331F89
S1130EE04FB7F894892F90E0FC01EE0FFF1F8E0F8F
S1130EF09F1FFC01E858FC4F328321834FBF0895A4
S1130F0061E08AE00E94C40F61E08AE00E94880FD9
S1130F108CB580618CBD8CB580648CBD61E08DE046
S1130F200E94880F61E08BE00C94880F0F931F934D
S1130F3060910001709101018BEB93E00E944407E2
S1130F4040E056E960E070E08EEB93E00E941312FB
S1130F5061E0809108010E94880F60E080910601A1
S1130F600E94880F61E0809100010E94880F82E353
S1130F7090E0909305018093040141E062E180EAEE
S1130F8093E00E948504882369F060E273E08DEDAC
S1130F9093E00E94050D64E670E080E090E00E941A
S1130FA0CB0EEBCF64E373E08DED93E00E94050D6F
S1130FB00FEF10E020E030E040E060E080EA93E0F2
S1130FC00E949D040FEF10E020E030E040E061E07B
S1130FD080EA93E00E949D0400E215E020E030E006
S1130FE040E060E080EA93E00E94F1046CEF78E076
S1130FF08BEB93E00E944A0768E57BE180E090E098
S11310001F910F910C94CB0E4F925F926F927F922F
S11310108F929F92AF92BF92CF92DF92EF92FF9204
S11310200F931F93CF93DF93CDB7DEB72D970FB6F2
S1131030F894DEBF0FBECDBF60E0809108010E942E
S1131040C40F198680EA93E00E94D905833009F021
S113105090C0AE014F5F5F4FBE01675F7F4F80EA74
S113106093E00E94B80580EA93E00E94E105809134
S113107006010E94420FBC01990F880B990B0E9434
S1131080210A6093B7037093B8038093B9039093D4
S1131090BA036093B3037093B4038093B50390933E
S11310A0B603698170E080E090E00E941F0A6B0142
S11310B07C0120E030E0A9010E94E409882339F191
S11310C020E030E040E851E4C701B6010E94E409A1
S11310D08823E9F020E030E040E452E4C701B6019F
S11310E00E94E409882399F020E030E040E852E4CB
S11310F0C701B6010E94E409882349F0C092AB03FA
S1131100D092AC03E092AD03F092AE0308C010920B
S1131110AB031092AC031092AD031092AE03609136
S1131120AB037091AC038091AD039091AE030E9428
S1131130E9091F921F9222E02F9322E12F93A12C01
S1131140B12C6501E12CF12C8701EA9420E030E018
S1131150A9010E94F30F0E94210A6093AF037093C8
S1131160B0038093B1039093B2030F900F900F904C
S11311700F90C090AF03D090B003E090B103F09013
S1131180B2036091040170910501072E000C880BD5
S1131190990B0E94210A4B015C019B01AC01C70120
S11311A0B6010E9477096A877B878C879D87409068
S11311B0B3035090B4036090B5037090B603A301D9
S11311C092010E94E409181674F1A5019401C70163
S11311D0B6010E9478099B01AC01C301B2010E94CF
S11311E0E409181604F16CED75E08BEB93E00E94B2
S11311F04A0762E370E080E090E00E94CB0E4091E9
S1131200B3035091B4036091B5037091B60322E027
S113121030E08DED93E00E944E0E61E08091080174
S11312200E94C40F35C0A30192016A857B858C8519
S11312309D850E94E40987FF03C06CEF78E010C02D
S1131240A5019401C701B6010E9478099B01AC0174
S1131250C301B2010E94E40987FF1AC068EE73E07B
S11312608BEB93E00E944A0762E370E080E090E039
S11312700E94CB0E4091B3035091B4036091B50327
S11312807091B60322E030E08DED93E00E944E0EA3
S11312902D960FB6F894DEBF0FBECDBFDF91CF9170
S11312A01F910F91FF90EF90DF90CF90BF90AF9080
S11312B09F908F907F906F905F904F90089520E063
S11312C04BE06AE08EEB93E00E94E8118BEB93E035
S11312D00E94A8066091020180EA93E00C947D04C8
S11312E08EEB93E00C948F1180E090E008955058B9
S11312F0BB27AA270E948F090C94970A0E94890A87
S113130038F00E94900A20F039F49F3F19F426F433
S11313100C94860A0EF4E095E7FB0C94800AE92FFE
S11313200E94A80A58F3BA1762077307840795073F
S113133020F079F4A6F50C94CA0A0EF4E0950B2E6D
S1131340BA2FA02D0B01B90190010C01CA01A00113
S11313501124FF27591B99F0593F50F4503E68F16E
S11313601A16F040A22F232F342F4427585FF3CFAF
S1131370469537952795A795F0405395C9F77EF480
S11313801F16BA0B620B730B840BBAF09150A1F0C9
S1131390FF0FBB1F661F771F881FC2F70EC0BA0F4F
S11313A0621F731F841F48F4879577956795B795D7
S11313B0F7959E3F08F0B0CF9395880F08F09927D2
S11313C0EE0F9795879508950E945C0A08F481E0D2
S11313D008950E94F0096894B1110C94CB0A089501
S11313E00E94B00A88F09F5798F0B92F9927B751F7
S11313F0B0F0E1F0660F771F881F991F1AF0BA95B5
S1131400C9F714C0B13091F00E94CA0AB1E008953E
S11314100C94CA0A672F782F8827B85F39F0B93F30
S1131420CCF3869577956795B395D9F73EF4909567
S11314308095709561957F4F8F4F9F4F0895E894E5
S113144009C097FB3EF490958095709561957F4F08
S11314508F4F9F4F9923A9F0F92F96E9BB279395B6
S1131460F695879577956795B795F111F8CFFAF4C6
S1131470BB0F11F460FF1BC06F5F7F4F8F4F9F4FF7
S113148016C0882311F096E911C0772321F09EE855
S1131490872F762F05C0662371F096E8862F70E0BB
S11314A060E02AF09A95660F771F881FDAF7880F95
S11314B09695879597F90895990F0008550FAA0BEB
S11314C0E0E8FEEF16161706E807F907C0F0121653
S11314D01306E407F50798F0621B730B840B950B56
S11314E039F40A2661F0232B242B252B21F40895AB
S11314F00A2609F4A140A6958FEF811D811D089548
S113150097F99F6780E870E060E008959FEF80ECB2
S1131510089500240A941616170618060906089555
S113152000240A9412161306140605060895092EBB
S11315300394000C11F4882352F0BB0F40F4BF2B2A
S113154011F460FF04C06F5F7F4F8F4F9F4F08956A
S113155057FD9058440F551F59F05F3F71F0479560
S1131560880F97FB991F61F09F3F79F08795089545
S1131570121613061406551FF2CF4695F1DF08C064
S1131580161617061806991FF1CF86957105610581
S113159008940895E894BB2766277727CB0197F929
S11315A008950E94E40A0C94970A0E94890A38F06C
S11315B00E94900A20F0952311F00C94800A0C9458
S11315C0860A11240C94CB0A0E94A80A70F3959FF2
S11315D0C1F3950F50E0551F629FF001729FBB2726
S11315E0F00DB11D639FAA27F00DB11DAA1F649FC2
S11315F06627B00DA11D661F829F2227B00DA11D75
S1131600621F739FB00DA11D621F839FA00D611DFA
S1131610221F749F3327A00D611D231F849F600D1B
S1131620211D822F762F6A2F11249F5750409AF044
S1131630F1F088234AF0EE0FFF1FBB1F661F771FD0
S1131640881F91505040A9F79E3F510580F00C949B
S1131650800A0C94CB0A5F3FE4F3983ED4F386955A
S113166077956795B795F795E7959F5FC1F7FE2B3B
S1131670880F911D9695879597F90895FC01918D92
S1131680228D892F90E0805C9F4F821B91098F737C
S113169099270895FC01918D828D981731F0828DE0
S11316A0E80FF11D858D90E008958FEF9FEF089569
S11316B0FC01918D828D981761F0828DDF01A80F56
S11316C0B11D5D968C91928D9F5F9F73928F90E078
S11316D008958FEF9FEF0895FC01538D448D252FBE
S11316E030E0842F90E0821B930B541710F0CF96B8
S11316F008950197089582E79CE0892B49F080E0E2
S113170090E0892B29F00E94720C81110C94000046
S11317100895FC01848DDF01A80FB11DA35ABF4FAA
S11317202C91848D90E001968F739927848FA689DC
S1131730B7892C93A089B1898C91837080648C9330
S1131740938D848D981306C00288F389E02D8081DF
S11317508F7D80830895EF92FF920F931F93CF9311
S1131760DF93EC0181E0888F9B8D8C8D981305C0ED
S1131770E889F989808185FD26C0F62E0B8D10E05D
S11317800F5F1F4F0F731127E02E8C8DE8120CC0D2
S11317900FB607FCFACFE889F989808185FFF5CF78
S11317A0CE010E94890BF1CF8B8DFE01E80FF11D54
S11317B0E35AFF4FF0829FB7F8940B8FEA89FB89B5
S11317C0808180620AC09FB7F894EE89FF896083A4
S11317D0E889F98980818370806480839FBF81E078
S11317E090E0DF91CF911F910F91FF90EF900895BA
S11317F0CF93DF93EC01888D8823C9F0EA89FB89B4
S1131800808185FD05C0A889B9898C9186FD0FC0AA
S11318100FB607FCF5CF808185FFF2CFA889B9897F
S11318208C9185FFEDCFCE010E94890BE7CFDF912C
S1131830CF9108951F920F920FB60F9211242F93F8
S11318408F939F93EF93FF93E091ED03F091EE0359
S11318508081E091F303F091F40382FD12C0908142
S11318608091F6038F5F8F732091F703821751F0F5
S1131870E091F603F0E0E352FC4F958F8093F6037A
S113188001C08081FF91EF919F918F912F910F90D3
S11318900FBE0F901F9018951F920F920FB60F92C4
S11318A011242F933F934F935F936F937F938F9361
S11318B09F93AF93BF93EF93FF938DED93E00E94BB
S11318C0890BFF91EF91BF91AF919F918F917F9180
S11318D06F915F914F913F912F910F900FBE0F9099
S11318E01F9018958DED93E00E943E0B21E0892B0B
S11318F009F420E0822F0895EDEDF3E013821282C3
S113190088EE93E0A0E0B0E084839583A683B78358
S113191089E493E09183808385EC90E095878487C4
S113192084EC90E09787868780EC90E0918B808BA5
S113193081EC90E0938B828B82EC90E0958B848B8E
S113194086EC90E0978B868B118E128E138E148EFC
S1131950089508950E94070F0E94A90C0E949607FB
S1131960CBE7DBE00E9404082097E1F30E947B0BA5
S1131970F9CFCF92DF92EF92FF920F931F93CF9301
S1131980DF936C017A018B01C0E0D0E0CE15DF0556
S113199081F0D8016D918D01D601ED91FC910190FA
S11319A0F081E02DC6010995892B11F02196EECF27
S11319B07E01C701DF91CF911F910F91FF90EF90AE
S11319C0DF90CF9008956115710579F0FB010190C6
S11319D00020E9F73197AF01461B570BDC01ED916D
S11319E0FC910280F381E02D099480E090E0089559
S11319F00C94E30CDC01ED91FC910190F081E02D5D
S1131A00099460E471E00C94E30C0F931F93CF935B
S1131A10DF93EC010E94E30C8C01CE010E94010DC6
S1131A20800F911FDF91CF911F910F9108958F9295
S1131A309F92AF92BF92EF92FF920F931F93CF9317
S1131A40DF93CDB7DEB7A1970FB6F894DEBF0FBE14
S1131A50CDBF7C01FA01CB0119A2223008F42AE09F
S1131A608E010F5D1F4F822E912CA12CB12CBF0132
S1131A70A50194010E944E13F901CA0101501109F4
S1131A806A3010F4605D01C0695CD8016C93232B4B
S1131A90242B252B61F7B801C7010E94E30CA19602
S1131AA00FB6F894DEBF0FBECDBFDF91CF911F916B
S1131AB00F91FF90EF90BF90AF909F908F900895FB
S1131AC02115310541F4DC01ED91FC910190F08187
S1131AD0E02D642F09940C94170D9A01AB0160E07A
S1131AE070E00C94600D7F928F929F92AF92BF92A0
S1131AF0CF92DF92EF92FF920F931F93CF93DF93D6
S1131B008C016A017B01722E9A01AB01C701B601F7
S1131B100E941913882319F067E573E027C0460172
S1131B205701E894B7F82FEF3FEF4FE75FE7C501A0
S1131B30B4010E94191381110DC02FEF3FEF4FE73D
S1131B405FE7C501B4010E94E40918161CF46BE5B3
S1131B5073E00CC02FEF3FEF4FE75FE4C701B6011E
S1131B600E941413181694F46FE573E0C801DF9112
S1131B70CF911F910F91FF90EF90DF90CF90BF9086
S1131B80AF909F908F907F900C94E30C2FEF3FEFDA
S1131B904FE75FECC701B6010E94E40987FDE4CF7B
S1131BA020E030E0A901C701B6010E94E40987FFE3
S1131BB00AC06DE2C8010E94FA0CEC01F7FAF09435
S1131BC0F7F8F09402C0C0E0D0E0B12C60E070E01F
S1131BD080E09FE37B1441F020E030E040E251E4F8
S1131BE00E94A212B394F6CFA70196010E9478092D
S1131BF06B017C010E94F0094B015C012AE0AB01FE
S1131C00BC01C8010E94170DC80FD91F7720B9F174
S1131C10C501B4010E941F0A9B01AC01C701B601B2
S1131C200E9477096B017C016EE2C8010E94FA0CE4
S1131C30C80FD91F20E030E040E251E4C701B601EB
S1131C400E94D10A4B015C010E94F0096B017C01E6
S1131C504AE050E0C8010E946D0DC80FD91FB601BB
S1131C6080E090E00E941F0A9B01AC01C501B40111
S1131C700E9477096B017C017A947110DBCFCE014D
S1131C80DF91CF911F910F91FF90EF90DF90CF9054
S1131C90BF90AF909F908F907F9008950C94730D98
S1131CA01F920F920FB60F9211242F933F938F938D
S1131CB09F93AF93BF9380917B0490917C04A091F8
S1131CC07D04B0917E0430917A0423E0230F2D37F4
S1131CD020F40196A11DB11D05C026E8230F02962C
S1131CE0A11DB11D20937A0480937B0490937C04FE
S1131CF0A0937D04B0937E0480917F04909180042E
S1131D00A0918104B09182040196A11DB11D80931C
S1131D107F0490938004A0938104B0938204BF91C4
S1131D20AF919F918F913F912F910F900FBE0F9084
S1131D301F9018952FB7F89460917B0470917C04E0
S1131D4080917D0490917E042FBF08953FB7F8944D
S1131D5080917F0490918004A0918104B0918204C9
S1131D6026B5A89B05C02F3F19F00196A11DB11DF2
S1131D703FBFBA2FA92F982F8827820F911DA11D2D
S1131D80B11DBC01CD0142E0660F771F881F991F6A
S1131D904A95D1F708958F929F92AF92BF92CF92B6
S1131DA0DF92EF92FF926B017C010E94A60E4B0121
S1131DB05C01C114D104E104F10401F10E94A112F7
S1131DC00E94A60EDC01CB0188199909AA09BB0956
S1131DD0883E9340A105B10560F321E0C21AD10801
S1131DE0E108F10888EE880E83E0981EA11CB11C5E
S1131DF0C114D104E104F10419F7DBCFFF90EF9093
S1131E00DF90CF90BF90AF909F908F90089578947B
S1131E1084B5826084BD84B5816084BD85B58260EB
S1131E2085BD85B5816085BDEEE6F0E08081816089
S1131E308083E1E8F0E01082808182608083808189
S1131E4081608083E0E8F0E0808181608083E1EB61
S1131E50F0E0808184608083E0EBF0E08081816049
S1131E608083EAE7F0E080818460808380818260FF
S1131E7080838081816080838081806880831092E8
S1131E80C10008958E3008F08E5020910A0190E42C
S1131E90299F900111248770822B80937C0080916C
S1131EA07A00806480937A0080917A0086FDFCCF6A
S1131EB0809178002091790090E0922B08958330EE
S1131EC081F028F4813099F08230A1F008958730B0
S1131ED0A9F08830B9F08430D1F4809180008F7DEE
S1131EE003C0809180008F7780938000089584B52B
S1131EF08F7702C084B58F7D84BD08958091B00032
S1131F008F7703C08091B0008F7D8093B0000895D7
S1131F10CF93DF9390E0FC01EC53FF4F2491FC013D
S1131F20E852FF4F8491882361F190E0880F991F54
S1131F30FC01E050FF4FC591D491FC01EA50FF4FE2
S1131F40A591B491611109C09FB7F8948881209537
S1131F5082238883EC912E230BC0623061F49FB7F7
S1131F60F8948881322F309583238883EC912E2B2B
S1131F702C939FBF06C08FB7F894E8812E2B28833B
S1131F808FBFDF91CF9108951F93CF93DF93282FB5
S1131F9030E0F901E055FF4F8491F901EC53FF4F14
S1131FA0D491F901E852FF4FC491CC23C1F0162F0C
S1131FB081110E945F0FEC2FF0E0EE0FFF1FEA503B
S1131FC0FF4FA591B4919FB7F894111104C08C915F
S1131FD0D095D82302C0EC91DE2BDC939FBFDF9118
S1131FE0CF911F9108954F925F926F927F92AF921B
S1131FF0BF92CF92DF92EF92FF920F931F93CF93F2
S1132000DF93CDB7DEB729013A019B01AC01241956
S113201035094609570989899A89AB89BC89BC0164
S1132020CD016A197B098C099D090E941E13A80120
S1132030970124193509460957090E947013CA01EA
S1132040B9016A0D7B1D8C1D9D1DDF91CF911F91E0
S11320500F91FF90EF90DF90CF90BF90AF907F9063
S11320606F905F904F9008952091C5043091C604FD
S113207028173907B9F49091830480918404981740
S113208089F0E0918304F0E0EB57FB4F80812091CD
S1132090830430E02F5F3F4F2F7333272093830453
S11320A090E008958FEF9FEF08951F93CF93DF93F0
S11320B0DC015C968D919C915D97009739F421E049
S11320C030E013963C932E9312973BC05196ED91BA
S11320D0FC91529750962C915097322F30951FB700
S11320E05E964C915E97742F727041FD6095F894E2
S11320F04081772311F0422B01C043234083EC013C
S11321002197F1F748E0508160FF02C0522B01C0D3
S113211053235083EC012197F1F76695415099F7C9
S11321208081772319F08323808302C0282B2083A6
S11321301FBF5C968D919C915D970197F1F781E0AB
S113214090E0DF91CF911F91089508952091C504E7
S11321503091C6042817390771F490918304809153
S11321608404981741F0E0918304F0E0EB57FB4FAF
S1132170808190E008958FEF9FEF08952091C5042A
S11321803091C6042817390771F480918404209192
S1132190830490E0805C9F4F821B910960E470E0AF
S11321A00E943A13089580E090E00895E091C504F8
S11321B0F091C604E817F90769F4A389B4899C91DE
S11321C08589809589238C931092C6041092C50446
S11321D081E0089580E00895CF93DF93EC018A8D28
S11321E09B8D892BF1F08091C5049091C604C8178A
S11321F0D907B9F0009711F00E94D6108E8D8E7F0A
S11322008E8F1092840410928304D093C604C093DA
S1132210C504EB89FC8990818D89892B808381E0B9
S113222001C080E0DF91CF9108951F920F920FB605
S11322300F9211242F933F934F935F936F937F9348
S11322408F939F93AF93BF93EF93FF93E091C50454
S1132250F091C604309709F451C0968DA685B785D0
S1132260858591FF04C09C91892329F447C09C91E2
S1132270892309F043C0A389B4899C9185898095F9
S113228089238C93868997890197F1F7608D718DE5
S1132290A685B785558538E020E0CB010197F1F795
S11322A0822F90E095958795282F4C91452309F02E
S11322B02068315091F7868D81FD209580918404AA
S11322C090E001968F73992730918304381749F071
S11322D0A0918404B0E0AB57BB4F2C93809384044B
S11322E003C0868D8160868F828D938D0197F1F76F
S11322F0A389B4899C918589892B8C93FF91EF9153
S1132300BF91AF919F918F917F916F915F914F9109
S11323103F912F910F900FBE0F901F90189527E6B5
S113232033E0FC01318320830C94D6101F93CF93A8
S1132330DF93EC01162F6E8D6695617081E068273E
S1132340812F0E94C40F61E0812F0E94880F812F8A
S113235090E0FC01EC53FF4FE491E88BFC01E85260
S1132360FF4FE491F0E0EE0FFF1FEA50FF4F85911D
S113237094919A8B898BDF91CF911F9108951F932C
S1132380CF93DF93EC01162F60E0812F0E94880F1A
S11323908E8D81FD04C061E0812F0E94C40F1C87D3
S11323A0812F90E0FC01EC53FF4FE491ED87FC0199
S11323B0E852FF4FE491F0E0EE0FFF1FE451FF4FAE
S11323C0859194919F878E87DF91CF911F91089576
S11323D01F93CF93DF93EC01162F1B821A8288EE92
S11323E093E0A0E0B0E08C839D83AE83BF8387E657
S11323F093E0998388831F8A1E8A198E188E1B8EF8
S11324001A8E1D8E1C8E8E8D8E7F20FB81F98E8FF1
S1132410642FCE010E949611612FCE01DF91CF91DE
S11324201F910C94BF11CF93DF93EC019A01AB0180
S11324301B8E1A8E198E188E1F8A1E8A60E079E010
S11324408DE390E00E947013F9012430310518F0F7
S1132450C901039702C081E090E09D8F8C8F6C8549
S1132460663108F069C0C901969587958431910554
S113247010F0439702C081E090E09F8B8E8B3697DB
S113248018F0C901059702C081E090E0998F888F08
S1132490C901880F991F280F391F3695279536953E
S11324A027952D30310518F02C50310902C021E058
S11324B030E03B8F2A8F90916800683050F021E023
S11324C06E3008F420E081E001C0880F2A95EAF715
S11324D001C084E0892B809368009C85983038F093
S11324E09E3040F0963148F020E030E008C02DE600
S11324F030E005C02BE630E002C02CE630E03C8B37
S11325002B8B983030F481E001C0880F9A95EAF75C
S11325100EC0292F30E09E3018F42850310902C033
S11325202E50310981E001C0880F2A95EAF78D8B7E
S11325308C8D9D8D0197F1F7CE01DF91CF910C9495
S1132540EC1008950E94B6120C94970A0E94900A07
S113255058F00E94890A40F029F45F3F29F00C9456
S1132560800A51110C94CB0A0C94860A0E94A80A82
S113257068F39923B1F3552391F3951B550BBB27AE
S1132580AA2762177307840738F09F5F5F4F220FF3
S1132590331F441FAA1FA9F335D00E2E3AF0E0E8EA
S11325A032D091505040E695001CCAF72BD0FE2F34
S11325B029D0660F771F881FBB1F261737074807C8
S11325C0AB07B0E809F0BB0B802DBF01FF27935880
S11325D05F4F3AF09E3F510578F00C94800A0C94BA
S11325E0CB0A5F3FE4F3983ED4F3869577956795DD
S11325F0B795F7959F5FC9F7880F911D96958795B5
S113260097F90895E1E0660F771F881FBB1F6217D3
S113261073078407BA0720F0621B730B840BBA0B91
S1132620EE1F88F7E09508950E945C0A08F48FEF86
S113263008950E945C0A880B990B0895DB018F931F
S11326409F930E949513BF91AF91A29F800D911DFE
S1132650A39F900DB29F900D11240895991B79E0CA
S113266004C0991F961708F0961B881F7A95C9F71E
S11326708095089597FB072E16F4009407D077FDF4
S113268009D00E94A01307FC05D03EF490958195D3
S11326909F4F0895709561957F4F0895A1E21A2E7A
S11326A0AA1BBB1BFD010DC0AA1FBB1FEE1FFF1FF2
S11326B0A217B307E407F50720F0A21BB30BE40B42
S11326C0F50B661F771F881F991F1A9469F7609589
S11326D07095809590959B01AC01BD01CF01089543
S11326E0052E97FB1EF400940E94871357FD07D014
S11326F00E944E1307FC03D04EF40C94871350959C
S11327004095309521953F4F4F4F5F4F08959095D9
S11327108095709561957F4F8F4F9F4F0895EE0F71
S1132720FF1F0590F491E02D09940E94B413A59F16
S1132730900DB49F900DA49F800D911D11240895B8
S1132740AA1BBB1B51E107C0AA1FBB1FA617B707D3
S113275010F0A61BB70B881F991F5A95A9F78095EF
S11327609095BC01CD010895A29FB001B39FC00113
S1132770A39F700D811D1124911DB29F700D811DA9
S11327801124911D089510E0C7E8D0E004C0FE01B3
S11327900E948F132196C838D107C9F7F894FFCF48
S11327A006000A0001000E00090001456E746572FE
S11327B02073657474696E67206D6F64652066614B
S11327C0696C0D0A00456E746572207365747469D2
S11327D06E67206D6F646520737563636573732022
S11327E00D0A0073657420726174652066616C6CF7
S11327F021210D0A0073657420726174652073755C
S1132800636365737321210D0A00456E746572203C
S11328104E6F726D616C204D6F6465204661696C0A
S113282021210D0A00456E746572204E6F726D6130
S11328306C204D6F64652053756363657373212148
S11328400D0A00426567696E20746F2073657420F9
S11328504D61736B21210D0A00456E7465722073FE
S1132860657474696E67206D6F64652066616C6C55
S11328700D0A00456E746572206E6F726D616C2076
S11328806D6F64652066616C6C0D0A00736574205D
S11328904D61736B207375636365737321210D0A36
S11328A000426567696E20746F2073657420466901
S11328B06C74657221210D0A00456E746572206E78
S11328C06F726D616C206D6F64652066616C6C0D58
S11328D00A5365742066696C746572206661696C5C
S11328E021210D0A007365742046696C7465722099
S11328F07375636365737321210D0A00496E7661F4
S11329006C69642070696E206D6F646520726571F6
S1132910756573740D0A00456E746572696E67207F
S1132920436F6E66696775726174696F6E204D6F6F
S11329306465204661696C7572652E2E2E0D0A0041
S11329406053657474696E67204944204D6F6465F3
S1132950204661696C7572652E2E2E0D0A00496E33
S113296076616C69642070696E20666F72206D6F89
S1132970646520726571756573740D0A00496E761D
S1132980616C69642070696E20666F72206D63707B
S11329904469676974616C57726974650D0A00490A
S11329A06E76616C69642070696E20666F72206D4A
S11329B063704469676974616C526561640D0A00EF
S11329C043414E2042555320496E69742046616943
S11329D06C65640043414E2042555320496E69742E
S11329E0204F4B210000000000AB0BB90C6C0BF81E
S11329F00B3E0B580B4A0B6E616E00696E66006FDE
S1132A00766600000000005510B90C7409A510BECC
S1092A10103410A61000B2
S9030000FC
