S01D00005061636B657453657269616C53696D706C6550574D2E73726563F1
S11300000C9463000C948B000C948B000C94AC0542
S11300100C94AC050C94AC050C948B000C948B00E4
S11300200C948B000C948B000C948B000C948B0020
S11300300C948B000C948B000C948B000C948B0010
S11300400C9451030C948B000C948B000C948B0037
S11300500C948B000C948B000C948B000C948B00F0
S11300600C948B000C948B0000000008000201002B
S1130070000304070000000000000000010204085F
S113008010204080010204081020010204081020FE
S1130090040404040404040402020202020203032A
S11300A003030303000000002300260029000000CE
S11300B00000250028002B00000000002400270079
S11300C02A008B029C0211241FBECFEFD8E0DEBFB2
S11300D0CDBF11E0A0E0B1E0EAE6FFE002C0059088
S11300E00D92A632B107D9F721E0A6E2B1E001C032
S11300F01D92A83AB207E1F710E0C2E6D0E004C0CE
S11301002197FE010E94A207C136D107C9F70E94B8
S113011018030C94A8070C94000080E090E0089564
S1130120DC0152968D919C915397009739F0DC0134
S1130130ED91FC910680F781E02D09940895FC016E
S1130140A289B389109741F0ED91FC911197008435
S1130150F185E02DCD0108C084899589DC01ED91FC
S1130160FC910084F185E02D0994FC01A289B389F6
S1130170109741F0ED91FC9111970284F385E02DE5
S1130180CD0108C084899589DC01ED91FC9102843C
S1130190F385E02D0994FC01A289B389109741F0FD
S11301A0ED91FC9111970190F081E02DCD0108C0F3
S11301B084899589DC01ED91FC910190F081E02D19
S11301C00994FC01A289B389109741F0ED91FC9147
S11301D011970484F585E02DCD0108C084899589A3
S11301E0DC01ED91FC910484F585E02D0994FC017A
S11301F01382128288EE93E0A0E0B0E084839583BA
S1130200A683B78386E091E091838083268737872E
S1130210408B518B758B648B138A128A08950895D1
S1130220FC0182899389009719F026E00C94B202AC
S1130230848995890C94AA068F929F92AF92BF925B
S1130240CF92DF92EF92FF92CF93DF93EC016A019A
S11302507B018A899B89892B01F10E949B034B01B5
S11302605C018A899B89DC01ED91FC910084F18514
S1130270E02D0995892B71F40E949B03DC01CB01CD
S113028088199909AA09BB098C159D05AE05BF05F6
S113029040F33DC08A899B8928C02C893D8980917F
S11302A0A6019091A7012817390781F50E949B03A5
S11302B04B015C018C899D89DC01ED91FC910084EA
S11302C0F185E02D0995892B71F40E949B03DC01D3
S11302D0CB0188199909AA09BB098C159D05AE059E
S11302E0BF0540F314C08C899D89DC01ED91FC911C
S11302F00284F385E02DDF91CF91FF90EF90DF90A2
S1130300CF90BF90AF909F908F90099402C08FEFD1
S11303109FEFDF91CF91FF90EF90DF90CF90BF9050
S1130320AF909F908F900895FC01848595859627C2
S11303309587848728E030E044855585CA01880F75
S1130340991F57FF04C041E2842740E19427958711
S113035084872150310981F70895AF92BF92DF92CB
S1130360EF92FF920F931F93CF93DF93CDB7DEB736
S11303700C851D8583E0F82ED8011D961C921E92D3
S11303801C97FE013F96E12CBE85EB16A9F05F0198
S113039082E0A80EB11CD0806D2DC8010E9494018A
S11303A0D801ED91FC910190F081E02D6D2DC801F3
S11303B00995E394F501E8CFF801E484658501909B
S11303C0F081E02D0190F081E02DC8010995D8015C
S11303D0ED91FC910190F081E02D6E2DC8010995FD
S11303E0F8014685578560897189C8010E941C01FE
S11303F08F3F910529F0FA94F110BECF80E001C03F
S113040081E0DF91CF911F910F91FF90EF90DF90EA
S1130410BF90AF9008951F924F931F921F921F9207
S11304206F9323E02F939F938F930E94AD012DB779
S11304303EB7275F3F4F0FB6F8943EBF0FBE2DBFA8
S113044008951F924F931F9221E02F931F926F9351
S113045023E02F939F938F930E94AD012DB73EB756
S1130460275F3F4F0FB6F8943EBF0FBE2DBF0895D0
S113047040E056E960E070E086E291E00E941001FD
S113048061E0809100010C946004CF93DF9348E70E
S113049060E886E291E00E940B02C0E0D1E061E0F6
S11304A088810E949C0468E873E180E090E00E94E7
S11304B0C00348E760E886E291E00E94210260E020
S11304C088810E949C0468E873E180E090E00E94C7
S11304D0C00340E660E886E291E00E940B0261E01E
S11304E088810E949C0468E873E180E090E00E94A7
S11304F0C00340E260E886E291E00E94210260E0ED
S113050088810E949C0468E873E180E090E0DF91B8
S1130510CF910C94C00320E041E060E08CE391E0D3
S11305200E947F0620E137E240E050E06CE371E096
S113053086E291E00C94F70086E291E00E940F01BC
S11305408CE391E00C94260680E090E0892B49F03E
S113055080E090E0892B29F00E94000081110C9426
S113056000000895CF92DF92EF92FF921F93CF93F2
S1130570DF93EC016A017B01122FE889F98982E09B
S113058080834115514E61057105B1F060E079E059
S11305908DE390E0A70196010E944D07DA01C9019D
S11305A00197A109B109B695A795979587959C01DF
S11305B0211580E13807A8F0E889F989108260E8FC
S11305C074E88EE190E0A70196010E944D07DA01DC
S11305D0C9010197A109B109B695A7959795879582
S11305E09C01EC85FD853083EE85FF852083188E84
S11305F0EC89FD891083EA89FB898081806180838D
S1130600EA89FB89808188608083EA89FB8980810B
S113061080688083EA89FB8980818F7D8083DF9174
S1130620CF911F91FF90EF90DF90CF9008950895A0
S11306300E94FC030E9417030E943802C4EAD2E01D
S11306400E9445022097E1F30E94A402F9CFCF92C1
S1130650DF92EF92FF920F931F93CF93DF936C017E
S11306607A018B01C0E0D0E0CE15DF0581F0D8011E
S11306706D918D01D601ED91FC910190F081E02DF9
S1130680C6010995892B11F02196EECF7E01C70191
S1130690DF91CF911F910F91FF90EF90DF90CF905A
S11306A008951F920F920FB60F9211242F933F9328
S11306B08F939F93AF93BF9380915C0190915D0161
S11306C0A0915E01B0915F0130915B0123E0230FA3
S11306D02D3720F40196A11DB11D05C026E8230F76
S11306E00296A11DB11D20935B0180935C01909340
S11306F05D01A0935E01B0935F01809160019091D0
S11307006101A0916201B09163010196A11DB11D27
S11307108093600190936101A0936201B09363019F
S1130720BF91AF919F918F913F912F910F900FBEE9
S11307300F901F9018953FB7F894809160019091A5
S11307406101A0916201B091630126B5A89B05C027
S11307502F3F19F00196A11DB11D3FBFBA2FA92F3C
S1130760982F8827820F911DA11DB11DBC01CD01B9
S113077042E0660F771F881F991F4A95D1F70895A5
S11307808F929F92AF92BF92CF92DF92EF92FF929D
S11307906B017C010E949B034B015C01C114D104D9
S11307A0E104F10401F10E9438070E949B03DC017B
S11307B0CB0188199909AA09BB09883E9340A10570
S11307C0B10560F321E0C21AD108E108F10888EE0E
S11307D0880E83E0981EA11CB11CC114D104E1044D
S11307E0F10419F7DBCFFF90EF90DF90CF90BF902B
S11307F0AF909F908F900895789484B5826084BD63
S113080084B5816084BD85B5826085BD85B5816010
S113081085BDEEE6F0E0808181608083E1E8F0E070
S11308201082808182608083808181608083E0E89F
S1130830F0E0808181608083E1EBF0E0808184607E
S11308408083E0EBF0E0808181608083EAE7F0E080
S113085080818460808380818260808380818160E4
S113086080838081806880831092C10008958330E2
S113087081F028F4813099F08230A1F00895873016
S1130880A9F08830B9F08430D1F4809180008F7D54
S113089003C0809180008F7780938000089584B591
S11308A08F7702C084B58F7D84BD08958091B00098
S11308B08F7703C08091B0008F7D8093B00008953E
S11308C0CF93DF9390E0FC01E458FF4F2491FC01A7
S11308D0E057FF4F8491882361F190E0880F991FBE
S11308E0FC01E854FF4FC591D491FC01E255FF4F40
S11308F0A591B491611109C09FB7F894888120959E
S113090082238883EC912E230BC0623061F49FB75D
S1130910F8948881322F309583238883EC912E2B91
S11309202C939FBF06C08FB7F894E8812E2B2883A1
S11309308FBFDF91CF9108951F93CF93DF93282F1B
S113094030E0F901E859FF4F8491F901E458FF4F71
S1130950D491F901E057FF4FC491CC23C1F0162F75
S113096081110E943704EC2FF0E0EE0FFF1FE255D7
S1130970FF4FA591B4919FB7F894111104C08C91C5
S1130980D095D82302C0EC91DE2BDC939FBFDF917E
S1130990CF911F9108952091A6013091A7012817A6
S11309A03907B9F49091640180916501981789F031
S11309B0E0916401F0E0EA59FE4F808120916401E6
S11309C030E02F5F3F4F2F7333272093640190E073
S11309D008958FEF9FEF08951F93CF93DF93DC016A
S11309E05C968D919C915D97009739F421E030E0FD
S11309F013963C932E9312973BC05196ED91FC9124
S1130A00529750962C915097322F30951FB75E967F
S1130A104C915E97742F727041FD6095F8944081FB
S1130A20772311F0422B01C043234083EC0121972B
S1130A30F1F748E0508160FF02C0522B01C05323FC
S1130A405083EC012197F1F76695415099F7808125
S1130A50772319F08323808302C0282B20831FBFB0
S1130A605C968D919C915D970197F1F781E090E000
S1130A70DF91CF911F91089508952091A60130919F
S1130A80A7012817390771F49091640180916501D9
S1130A90981741F0E0916401F0E0EA59FE4F80813B
S1130AA090E008958FEF9FEF08952091A601309173
S1130AB0A7012817390771F4809165012091640119
S1130AC090E0805C9F4F821B910960E470E00E947B
S1130AD03907089580E090E00895E091A601F0912F
S1130AE0A701E817F90769F4A389B4899C9185895A
S1130AF0809589238C931092A7011092A60181E01E
S1130B00089580E00895CF93DF93EC018A8D9B8D47
S1130B10892BF1F08091A6019091A701C817D907FC
S1130B20B9F0009711F00E946D058E8D8E7F8E8F27
S1130B301092650110926401D093A701C093A6019D
S1130B40EB89FC8990818D89892B808381E001C0A8
S1130B5080E0DF91CF9108951F920F920FB60F920C
S1130B6011242F933F934F935F936F937F938F93AE
S1130B709F93AF93BF93EF93FF93E091A601F091FE
S1130B80A701309709F451C0968DA685B785858550
S1130B9091FF04C09C91892329F447C09C91892327
S1130BA009F043C0A389B4899C91858980958923E0
S1130BB08C93868997890197F1F7608D718DA6854D
S1130BC0B785558538E020E0CB010197F1F7822FF6
S1130BD090E095958795282F4C91452309F020683E
S1130BE0315091F7868D81FD20958091650190E0CB
S1130BF001968F73992730916401381749F0A091B9
S1130C006501B0E0AA59BE4F2C938093650103C0DF
S1130C10868D8160868F828D938D0197F1F7A389EC
S1130C20B4899C918589892B8C93FF91EF91BF9115
S1130C30AF919F918F917F916F915F914F913F9170
S1130C402F910F900FBE0F901F90189528E131E05F
S1130C50FC01318320830C946D051F93CF93DF93A4
S1130C60EC01162F6E8D6695617081E06827812FE7
S1130C700E949C0461E0812F0E946004812F90E017
S1130C80FC01E458FF4FE491E88BFC01E057FF4F6F
S1130C90E491F0E0EE0FFF1FE255FF4F8591949130
S1130CA09A8B898BDF91CF911F9108951F93CF93D6
S1130CB0DF93EC01162F60E0812F0E9460048E8D7B
S1130CC081FD04C061E0812F0E949C041C87812F58
S1130CD090E0FC01E458FF4FE491ED87FC01E057FC
S1130CE0FF4FE491F0E0EE0FFF1FEC55FF4F8591AD
S1130CF094919F878E87DF91CF911F9108951F93C1
S1130D00CF93DF93EC01162F1B821A8288EE93E0B7
S1130D10A0E0B0E08C839D83AE83BF8388E191E043
S1130D20998388831F8A1E8A198E188E1B8E1A8EA9
S1130D301D8E1C8E8E8D8E7F20FB81F98E8F642FED
S1130D40CE010E942D06612FCE01DF91CF911F911C
S1130D500C945606CF93DF93EC019A01AB011B8EE2
S1130D601A8E198E188E1F8A1E8A60E079E08DE330
S1130D7090E00E946F07F9012430310518F0C90191
S1130D80039702C081E090E09D8F8C8F6C85663163
S1130D9008F069C0C901969587958431910510F0D2
S1130DA0439702C081E090E09F8B8E8B369718F0BA
S1130DB0C901059702C081E090E0998F888FC9012D
S1130DC0880F991F280F391F369527953695279533
S1130DD02D30310518F02C50310902C021E030E0EB
S1130DE03B8F2A8F90916800683050F021E06E307C
S1130DF008F420E081E001C0880F2A95EAF701C0D9
S1130E0084E0892B809368009C85983038F09E306C
S1130E1040F0963148F020E030E008C02DE630E0A4
S1130E2005C02BE630E002C02CE630E03C8B2B8B77
S1130E30983030F481E001C0880F9A95EAF70EC02B
S1130E40292F30E09E3018F42850310902C02E506A
S1130E50310981E001C0880F2A95EAF78D8B8C8DCA
S1130E609D8D0197F1F7CE01DF91CF910C9483050D
S1130E70089597FB072E16F4009407D077FD09D048
S1130E800E948E0707FC05D03EF4909581959F4FF4
S1130E900895709561957F4F0895A1E21A2EAA1BBB
S1130EA0BB1BFD010DC0AA1FBB1FEE1FFF1FA21716
S1130EB0B307E407F50720F0A21BB30BE40BF50B13
S1130EC0661F771F881F991F1A9469F7609570959C
S1130ED0809590959B01AC01BD01CF010895052E2D
S1130EE097FB1EF400940E94860757FD07D00E94CA
S1130EF04D0707FC03D04EF40C948607509540959B
S1130F00309521953F4F4F4F5F4F089590958095B1
S1130F10709561957F4F8F4F9F4F0895AA1BBB1B00
S1130F2051E107C0AA1FBB1FA617B70710F0A61BE5
S1130F30B70B881F991F5A95A9F780959095BC0106
S1130F40CD010895EE0FFF1F0590F491E02D099453
S1130F5010E0C2E6D0E004C0FE010E94A207219680
S10D0F60C336D107C9F7F894FFCF98
S1130F6A090000000000CB0027038D0090009F00B9
S1130F7AB500E10000000000EC0427038D003C05E5
S1090F8A5505CB043D05F2
S9030000FC
